:020000040800F2
:1000000078B500201D0300081512010829F5000825
:10001000D51101087560000889C10108EF020008C8
:100020000000000000000000000000003190010806
:10003000BD63000800000000A53D010871920108A1
:10004000F9020008F9020008E93F0108F902000876
:10005000F9020008F9020008F9020008F902000894
:10006000F9020008D13D0108F9020008F902000870
:10007000F9020008F9020008F9020008F902000874
:10008000F90200088967000891670008F902000872
:10009000F9020008F9020008F9020008F902000854
:1000A00081670008F9020008F9020008F902000857
:1000B000F90200087D92000889920008F902000800
:1000C000F9020008F9020008F9020008F902000824
:1000D000F9020008F9020008F9020008F902000814
:1000E000F9020008F9020008F9020008F902000804
:1000F000F9020008F902000845B60108F9020008F3
:10010000F9020008F9020008F9020008B594010894
:10011000F9020008F9020008F9020008F9020008D3
:10012000F9020008F9020008F9020008F9020008C3
:10013000F90200080DE50008F9020008F9020008BC
:10014000F9020008F9020008A93D0108F9020008B7
:10015000F9020008F9020008F9020008F902000893
:1001600000F002F800F0B0F80AA090E8000C824419
:100170008344AAF10107DA4501D100F0A5F8AFF2F6
:10018000090EBAE80F0013F0010F18BFFB1A43F075
:100190000103184798550300B85503000A444FF06F
:1001A000000C10F8013B13F0070408BF10F8014BD6
:1001B0001D1108BF10F8015B641E05D010F8016B1B
:1001C000641E01F8016BF9D113F0080F1EBF10F87F
:1001D000014BAD1C0C1B09D16D1E58BF01F801CBA2
:1001E000FAD505E014F8016B01F8016B6D1EF9D525
:1001F0009142D6D37047000000230024002500263A
:10020000103A28BF78C1FBD8520728BF30C148BF79
:100210000B6070476E2900F08984702900F0D38547
:10022000662931F07487652931F07187672931F0CB
:100230006E87612931F06D8703681B0A28BF41F082
:100240008001692900F05081642900F04D817529F1
:1002500000F04A816F2900F06185782900F09F85C0
:10026000E92900F0FB84E42900F0F884F52900F086
:10027000F584EF2900F05E85F82900F09E8503687B
:10028000DB0928BF41F08001632901F0B5817329A2
:1002900001F0BA81E32901F0C581F32901F0CA8197
:1002A000002070471FB531F025FF01F019FA040056
:1002B0000020002131F008FF401C60600020002178
:1002C00031F0ECFEE0601FBD01F0DCF91146FFF7F4
:1002D000E9FF2CF055FC22F070F800000A48804736
:1002E0000A480047FEE7FEE7FEE7FEE7FEE7FEE717
:1002F000FEE7FEE7FEE7FEE7FEE7000004480549EB
:10030000034A054B704700002D9401086101000865
:1003100078A5002078B5002078A5002023F044FBC4
:1003200001280CD08AB015488047154800472DE9B0
:10033000F05F144C6B462360BFF34F8F30BF114CFE
:100340002468A546BDE8F09F0F481049096850F899
:10035000042B126804B40139F9D170470A480B49DB
:100360000968A1F1010100EB810001F1010150F8E0
:10037000042908BC13600139F9D170472D94010894
:100380006101000890340020942A03089C2A030885
:1003900053EA020C00F069802DE9F04B4FF00006A3
:1003A000002B1FBFB3FA83F503FA05F424FA05F610
:1003B0005E4012BF1643B2FA82F502FA05F4C5F1A7
:1003C00020051EBF22FA05FC44EA0C04203556EA3B
:1003D000044C4FEA144418BF641C4FF000084FF05F
:1003E0000009904271EB030C39D3002919BFB1FA0F
:1003F00081F701FA07F6B0FA80F700FA07F6C7F1BD
:1004000020071EBF20FA07FC46EA0C062037B6FB81
:10041000F4FCA7EB0507103F07F01F0BCBF12006FC
:100420002CFA06F60CFA0BFB44BFB3460026202F2D
:10043000A4BF5E464FF0000B5BEA060C08BF4FF00E
:10044000010B19EB0B0948EB0608ABFB027C06FB22
:1004500002CC0BFB03CCC01B71EB0C01C1E70B46BC
:10046000024641464846BDE8F08B13B5084318BF25
:100470004FF0FF300146AFF30080BDE81C407047ED
:100480007CB51D4616460C00009007D04142A142A3
:1004900002D32044401E01E04FF0FF30064B7B4466
:1004A0002A4669460190304600F059FB002C02D0E4
:1004B000009A002111707CBDED0600000FB41CB540
:1004C000084B06AA7B4469460090059800F047FB5C
:1004D00004460020694600F055FB20461CBC5DF830
:1004E00014FB0000BD0600002DE9F0410646002483
:1004F00010687529314616A510D000F083FA00283F
:1005000002DA404213A507E031688A0701D512A537
:1005100002E0490704D511A5012401E000F07BFAAF
:1005200000210A2206F1240709E0B0FBF2FCB0FB2F
:10053000F2F302FB1C00303078541846491C0028A6
:10054000F3D123462A463046BDE8F04100F095BA83
:10055000000000002D0000002B0000002000000023
:100560002DE9F05F894604464FF0000ADFF874B1C8
:10057000FB44C0F820A02046E1688847002874D0DA
:10058000252806D0D4E901219047206A401C20622A
:10059000F1E700265F462046E168884720280546A7
:1005A00007DB312D05D2781910F8200C08B106436D
:1005B000F1E7B00701D526F00406C4F81CA0002717
:1005C000C4F818A02A2D09D0284631F05FFD38B3B1
:1005D00004EB8708303DC8F8185019E059F8041B9F
:1005E000204604EB87029161E1688847012F0546A8
:1005F00018D1E069002820DA26F020061DE0D8F89E
:10060000180000EB800005EB40003038C8F81800F7
:100610002046E1688847054631F038FD0028EED1D4
:10062000012F0AD02E2D08D12046E16888477F1C73
:100630000546022F46F02006C4DBA069002803DA35
:10064000404246F00106A061F00701D026F01006F6
:100650006C2D0BD0682D09D04C2D39D06A2D35D09A
:10066000742D35D07A2D33D016E038E0E1682F466E
:1006700020468847B842054609D16C2F26D04FF452
:100680008060E168064320468847054604E06C2FF9
:100690001AD04FF4807006430DB3A5F1410019281C
:1006A00002D8203546F400664A4629462046266090
:1006B0004E46FFF7AFFD80B101280BD0F61D26F0A6
:1006C000070000F1080956E74020E4E78020D8E75A
:1006D0000020D6E706F104094DE7284652E7206AD4
:1006E000BDE8F09FA21B030040EA010310B59B0781
:1006F0000FD1042A0DD310C808C9121F9C42F8D08C
:1007000020BA19BA884201D9012010BD4FF0FF303C
:1007100010BD1AB1D30703D0521C07E0002010BD52
:1007200010F8013B11F8014B1B1B07D110F8013BDE
:1007300011F8014B1B1B01D1921EF1D1184610BDBF
:1007400040EA0103024630B59B0710D14FF0013457
:1007500000E008C208C91D1B9D4315EAC41FF8D05C
:1007600013F0FF0102F8011B0DD01B0AF8E711F886
:10077000013B002B02F8013B05D011F8013B002B97
:1007800002F8013BF3D130BD032A40F2308010F073
:10079000030C00F0158011F8013BBCF1020F62441C
:1007A00098BF11F801CB00F8013B38BF11F8013BAD
:1007B000A2F1040298BF00F801CB38BF00F8013B5A
:1007C00011F0030300F00A83083AC0F0088051F8E2
:1007D000043B083A51F804CBA0E80810F5E7121DD5
:1007E0005CBF51F8043B40F8043BAFF30080D207F4
:1007F00024BF11F8013B11F801CB48BF11F8012BC0
:1008000024BF00F8013B00F801CB48BF00F8012BE2
:100810007047431A28BF9A4240F2E08210441144C4
:1008200010F0030F1EBF11F8013D521E00F8013DEC
:1008300010F0030F7FF4F6AF103AC0F00A8010B545
:1008400031E9185020E91850103ABFF4F9AFBDE86B
:100850001040530724BF31E9081020E9081044BFB5
:1008600051F8043D40F8043D12F0030F08BF7047F3
:10087000D20728BF31F8023D48BF11F8012C28BF2C
:1008800020F8023D48BF00F8012C704702F0FF033A
:1008900043EA032242EA024200F002B84FF00002AB
:1008A0000429C0F0128010F0030C00F01B80CCF182
:1008B000040CBCF1020F18BF00F8012BA8BF20F8F0
:1008C000022BA1EB0C0100F00DB85FEAC17C24BF44
:1008D00000F8012B00F8012B48BF00F8012B7047EE
:1008E0004FF0000200B5134694469646203922BFC9
:1008F000A0E80C50A0E80C50B1F12001BFF4F7AF14
:10090000090728BFA0E80C5048BF0CC05DF804EBF5
:10091000890028BF40F8042B08BF704748BF20F863
:10092000022B11F0804F18BF00F8012B7047000018
:100930004FF0013C50F8042B51F8043B9A4221D16E
:10094000A2EB0C03934313EACC1317D150F8042BFA
:1009500051F8043B9A4215D1A2EB0C03934313EADE
:10096000CC130BD150F8042B51F8043B9A4209D117
:10097000A2EB0C03934313EACC13DBD04FF000003F
:10098000704700BFD01A01BAB1FA81F101F0180125
:1009900022FA01F0CB40DBB2C0B2C01AC1F1200193
:1009A0002CFA01F3D11A914311EAC311E6D1704731
:1009B00070477047704770B5044685690068C10686
:1009C00001D5302600E02026C00707D070BDD4E94D
:1009D000012130469047206A401C20626D1EF6D5EA
:1009E00070BD70B5044685690078C00707D170BD39
:1009F000D4E9012120209047206A401C20626D1E0E
:100A0000F6D570BD09684A0501D540B27047C905E1
:100A1000FCD500B2704709684A0501D5C0B27047DD
:100A2000C905FCD580B2704770B50C460546012A51
:100A300005D02878800600D5EA69002302E001236A
:100A400005E05B1C934202D2E05C0028F9D1A86962
:100A5000E618C01AA861286A184428622846FFF7D9
:100A6000AAFF04E0D5E9012114F8010B9047B44234
:100A7000F8D32846FFF7B5FF70BD2DE9F0470D46C6
:100A800099469246044600F124080168880604D578
:100A9000E06921F01001216000E00120A84201DDA1
:100AA000471B00E00027A1697A1902EB0900081A28
:100AB000A0612078C00602D42046FFF77CFF002604
:100AC00008E0D4E901211AF806009047206A401C8A
:100AD000761C20624E45F4DB2078C0060AD52046FD
:100AE000FFF769FF06E0D4E9012130209047206A32
:100AF000401C2062381EA7F10107F4DC07E0D4E9AE
:100B0000012118F805009047206A401C2062281E29
:100B1000A5F10105F3DC2046FFF763FF207800060E
:100B200002D50220BDE8F0870120FBE711680268CA
:100B3000006A530501D508700AE0D30501D5088085
:100B400006E0130603D5C217C1E9000200E0086001
:100B50000120704701694A1C02610878704700B59E
:100B60008FB0CDE901310021059105497944CDE9E6
:100B7000031011466846FFF7F3FC0FB000BD0000FC
:100B8000E5FFFFFF0A6802F8010B0A607047D1E930
:100B900000239A4202D2531C0B6010707047000071
:100BA0002DE9FF5F15468A460446DFF8AC80F8441D
:100BB0000027D8E900103E46CDE9001010E05AF8B1
:100BC00026106A4602A800F039FD411C07D02178A2
:100BD000890603D5E269391891420DD80744761C7D
:100BE0002078800602D5E069B84205DDAE42E6DB3A
:100BF0005AF826000028E2D1A069C01BA061204657
:100C0000FFF7D9FED8E90010CDE90010002017E069
:100C10005AF828106A4602A800F010FDB0F1FF3F14
:100C200081460BD000250DF1080B05E0D4E9012128
:100C30001BF8050090476D1C4D45F7D308F10100E6
:100C4000B0428046E4DB206A384420622046FFF749
:100C5000C8FEBDE8FF9F0000761503002DE9F041B6
:100C60008046D21D22F007020025D2E90002F529B4
:100C700015A614D0011E72F1000106DA0023D0EB94
:100C8000030063EB020211A608E0D8F800108B07FE
:100C900001D50FA602E0490701D50EA60125114690
:100CA000002408F1240704E000F0CAF830323A5575
:100CB000641C50EA0102F7D12B46324621464046D9
:100CC000BDE8F041FFF7D9BE000000002D00000094
:100CD0002B0000002000000030B4002100F12404AB
:100CE00008E002F00705D208303542EA4372DB081B
:100CF0006554491C52EA0305F3D10468002310A28D
:100D0000250708D504F020040C4304D0C46901234E
:100D10000CA2641EC46130BCFFF7AFBE10B5044620
:100D200021461068FFF777FE02462046BDE81040D6
:100D30000023D1E7D21D22F00701D1E90023CBE740
:100D40000000000030000000F0B40D4601880905E5
:100D500002D5214C7C4402E01F4C7C440E3400211F
:100D600000F1240608E002F00F071209E75D42EAED
:100D700003721B097754491C52EA0307F3D1027826
:100D80000023120704D5702D06D009B102231134B7
:100D90002246F0BCFFF771BE01231034F8E770B5AE
:100DA00004460D4621461068FFF735FE02462946E7
:100DB0002046BDE870400023C6E7D21D22F007039D
:100DC000D3E90023C0E70368126843F020030360FF
:100DD0000823C3610023B7E7D813030010B5203AF6
:100DE000C0F00B80B1E81850A0E81850B1E81850D6
:100DF000A0E81850203ABFF4F5AF5FEA027C24BFA8
:100E0000B1E81850A0E8185044BF18C918C0BDE890
:100E100010405FEA827C24BF51F8043B40F8043B59
:100E200008BF7047D20728BF31F8023B48BF11F80E
:100E3000012B28BF20F8023B48BF00F8012B704768
:100E400030B5B0F10A0271F100034FEA900E4EEA9C
:100E5000817EB0EB0E0061EB91014FEA101E4EEA6D
:100E6000017E10EB0E0041EB11114FEA102E4EEAFD
:100E7000016E10EB0E0041EB11214FEA104E4EEACD
:100E8000014E10EB0E0041EB1141401841F1000101
:100E90004FEAD00040EA41704FEAD1014FEA8104A5
:100EA00044EA907410EB800544EB01046D1944EBA7
:100EB0000404521BA3414FF0000348BF0A3200D57F
:100EC00030BD401C41F1000130BD2DE9FF4F0C4603
:100ED0001E464FF0FF378BB0D2E90001DDF860808D
:100EE0000A908A46C1F30A5505B93D4600210846D5
:100EF0004FF00000BAF1000F00F4400005DA00EBFB
:100F000080004FF4400101EA50004FEA9059B9F1D6
:100F1000010F00DDB9460A9850EA4A000ED044F6A7
:100F20001050A5F2FF3545432F14B8F1000F1ED025
:100F30007542291E1EDDC9F100021CE0B8F1010F47
:100F40004FF0000001D0302103E0F24305E02154CE
:100F5000401CB042FBDB30460022002121540B999B
:100F6000C1F80880C1E900200FB0BDE8F08FBD1BBB
:100F70006D1CDEE74A4600DA694206A800F0F4FB81
:100F800006AB93E8070003AB83E8070050460A99D5
:100F900030F09CFC8DE80700A0F500501F38009051
:100FA0000398002D0ADD42F21F014A46084400233F
:100FB00003A90390684630F005FF09E0A0F5005052
:100FC0004A461F38002303A90390684630F00FFFFC
:100FD0008DE807000004000C03D04FF0FF304108FB
:100FE00000E01046B8F1000F03D000220092154631
:100FF0001EE0751E05D4FFF723FF303262556D1ECB
:10100000F9D5B3460122084302D000227F1C04E038
:101010002078302801D100227F1E002A099784D031
:101020001DE0112D07DAFFF70BFF303262556D1C02
:1010300050EA0102F5D1084302D00098C8B10EE091
:101040000021681E05E0235C625C63542254401E4C
:10105000491C8142F7DBAB46A81B401E09900020CB
:1010600004F80B000B98099AC0F80880C0E9002B1F
:101070007AE711264FF0000857E72DE9F04F884630
:101080000446D21D22F0070191B0D1E90001CDE95B
:101090000A0130F0E3FF02460B98C00F01D02D206B
:1010A00007E02068810701D52B2002E0202101EA1A
:1010B000C000032A099001D0072A05DB03464146F8
:1010C000204600F011FB0BE12078800601D5E06995
:1010D00000E00620B8F1650F814606D0B8F1660F32
:1010E00018D0B8F1670F70D131E00020B9F1110FBD
:1010F000009001DB112301E009F101030AAA01A913
:101100000CA8FFF7E2FEDDE90C70002609F10105ED
:10111000834647E001204B4600904FF000470AAA63
:1011200001A90CA8FFF7D1FEDDE90DB00C995D46D1
:10113000002610B909F101000D18B9EB050003D420
:10114000C0F1FF3609F10105A5EB09002BE0B9F16B
:10115000010F01DA4FF001090020B9F1110F0090E1
:10116000484601DD112300E003460AAA01A90CA8A4
:10117000FFF7ABFEDDE90C704D4600268346207874
:1011800000070AD4AB4500DA5D4601A8012D04DD55
:10119000411911F8011C302907D04F4502DA17F127
:1011A000040F04DA012082460FE06D1EEEE7002FE7
:1011B00002DCED1B3E4403E0781CA84200DD7D1CF0
:1011C000B81B00F1010A4FF000472078000703D454
:1011D000AA4501DB4FF0FF3A0021B7F1004F0DF1B6
:1011E00043088DF8431024D002202B23002F01DA6E
:1011F0007F422D230A21021EA0F1010000DC5FB115
:1012000097FBF1FC97FBF1F201FB1C7C17460CF1FC
:10121000300C08F801CDEEE7A8F101000370218839
:10122000090501D5452100E06521A0F1010800F87C
:10123000011C09980FA9A1EB0807FF1D00B10120AF
:10124000411901EBEA70A1693844081A401EA061F7
:101250002078C00602D42046FFF7ADFB099828B1DC
:10126000D4E901219047206A401C20622078C00602
:1012700022D52046FFF79FFB1EE0002E04DBB3457E
:1012800002DD01A8805D00E03020D4E90121904713
:10129000206A401C2062761CAAF101005FEA000A65
:1012A0000AD100F01DFAC0680168405CD4E9012150
:1012B0009047206A401C2062281EA5F10105DCDC55
:1012C00007E0D4E9012118F8010B9047206A401C7F
:1012D0002062381EA7F10107F3DC2046FFF781FBEF
:1012E000032011B041E600002DE9F04F04460D4601
:1012F000D21D22F0070089B0D0E900974846394650
:1013000030F0ACFE0246F80F01D02D2307E0206834
:10131000810701D52B2302E0202101EAC0038DF8CB
:1013200020300BB1012000E00020032A824601D0CA
:10133000072A04DB2946204600F0D6F93FE1207851
:10134000800601D40D2500E0E569C7F30A560D2D8E
:1013500049DA00214FEA175B08464FF00000002FE2
:1013600000F4400007DA00EB80004FF4400100EB8E
:10137000D07001EA60008115012901DD4FF0FF31D5
:1013800000224FEA850CBCF1180F06D31346ACF1CE
:1013900018004FF08052C24003E04FF4801323FA4C
:1013A0000CF30CF10C0CBCF1200F04D3ACF1200CAD
:1013B00009FA0CF001E007FA0CF000294FF00048A0
:1013C00001DD18B90FE00ED140450CD319EB02092D
:1013D0005F4121B9404502D19F4329EA0209BBEB95
:1013E000175F00D0761C2088000502D57B48784422
:1013F00002E07A487844193808AA302302F80A3003
:10140000037C0AF10101002E0AF1020A53546A46D4
:1014100002DC4FF0300101E04FF031014FF00108E4
:101420008DF8001002D0A6F2FF3603E059EA47011A
:1014300000D06B4E002D02DC2178090704D54FF057
:1014400002082E218DF80110C44600210BE0C7F3DD
:1014500003433F01C35C491C6D1E02F80830052997
:1014600008F1010801DA002DF1DC00210CE000EBAD
:101470001973491C1B786D1E082902F808304FEAC1
:10148000091908F1010801DA002DF0DC21688B064A
:1014900002D516E0A8F10108E04505DD02EB0803DE
:1014A00013F8013C302BF5D0B8F1000F09DD02EB49
:1014B000080313F8013C2E2B03D1090701D4A8F12E
:1014C0000108002D05DD3E2102F808106D1E08F10F
:1014D0000108407C002E02F8080008F1010804DA37
:1014E0002D20764202F8080002E02B2002F80800C6
:1014F0000A214FF47A70864208F101080BDB96FB53
:10150000F0F3303302F8083096FBF0F308F10108ED
:1015100000FB136601E0642E0CDB642096FBF0F305
:10152000303302F8083096FBF0F308F1010800FBB5
:10153000136601E00A2E06DB96FBF1F0303002F86C
:10154000080008F1010896FBF1F001FB1060303053
:1015500002F80800A16908F1010808EB050202EB96
:101560000A00081AA0612078C00602D42046FFF7BE
:1015700022FA216A08AE01EB0A00206204E0D4E9F5
:10158000012116F8010B9047BAF1010AF7D2207831
:10159000C00602D52046FFF70EFA6E4609E016F89F
:1015A000010B3E280FD0D4E901219047206A401C4E
:1015B0002062B8F10108F2D22046FFF712FA09B012
:1015C0000320BDE8F08F206A2844206203E0D4E9BC
:1015D0000121302090476D1EEBD3F8E7790D030011
:1015E00002FCFFFF10B5436913B1AFF3008001E0C7
:1015F000FFF71AFA012010BD127800F124010A70D9
:1016000000224A700122EDE711684FF0FF32E9E74E
:1016100010B5436913B1AFF3008001E0FFF7C0FAE2
:10162000012010BD126800F1240142620022826292
:101630000122EDE711684FF0FF32E9E72DE9F041B3
:1016400016460C46054600F043F8036893F801017E
:10165000012807D0FF2C12D8185D80B101202C7012
:10166000BDE8F081D3F807013246214603F20713A3
:10167000C7182846BC46BDE8F041012360474FF03B
:10168000FF30EDE7754600F0E1F8AE46050069462B
:10169000534620F00700854618B020B5FEF72EFE11
:1016A000BDE820404FF000064FF000074FF0000863
:1016B0004FF0000BAC46ACE8C009ACE8C009ACE8A0
:1016C000C009ACE8C00921F007018D467047000051
:1016D00010B500F005F8001D10BD00BFED090300B6
:1016E00000487047C00700202DE9F0411F4604461E
:1016F00003260168072A01F4006004DB08B116A57F
:1017000005E016A503E008B115A500E015A521F038
:1017100010002060A069C01EA0610FB1401EA06132
:101720002046FFF748F94FB1D4E9012138469047E8
:10173000206A401C2062C01C206206E0206AFAE792
:10174000D4E9012115F8010B9047761EF8D2204606
:10175000FFF747F9BDE8F0814E414E006E616E0023
:10176000494E4600696E66002DE9F04781461646EF
:101770008AB0354878440DC88DE80D003248784469
:10178000801C03AC0DC884E80D0041F69B30084472
:10179000372190FBF1F290FBF1F5A5F1800501FBFB
:1017A00012041B3C02D56442012000E00020DFF857
:1017B00098A080460027FA44AAF1BE0A0EE0E0078E
:1017C0000AD03246684607EB470101230AEB810144
:1017D00030F00DFB8DE8070064107F1C002CEED16B
:1017E000194F7F44AE3F19E0E80715D007EB04100E
:1017F0000DF1180A90E80E008AE80E00C068F04269
:1018000001D1981908903246012306A903A830F0A7
:10181000EEFA03AB83E807006D10641C002DE3D1E2
:101820004FF0010332466946B8F1000F03A802D019
:1018300030F0C8FA01E030F0DAFAC9E90001C9F87D
:1018400008200AB0BDE8F087840A0300004870470A
:10185000A007002080B5C2B00C2210F07CFA032251
:1018600010F0F7FA0DF1060010F0EAF942B080BD71
:1018700080B5C2B0042110F07CFA082210F0EFF914
:101880000DF1060010F086FA42B080BD80B513F06D
:10189000BBFA50B1018C01F00C02082A11BF0C20D8
:1018A00041F00C010184002080BD022080BD80B584
:1018B000C2B0042110F05DFA032210F0D0F90DF14E
:1018C000060010F067FA42B080BD80B5C2B00421B6
:1018D00010F04FFA052210F0C2F90DF1060010F0D9
:1018E00059FA42B080BDB0B594B00CF0D5FEA0B9A5
:1018F0006C46002104F13E05C8B2214612F0F0FC0E
:1019000050B99DF80100294600F001000CF05FFE7F
:1019100001210028F0D000E0002014B0B0BD00008C
:101920002DE9F04389B0DFF8E89E0DF10508064681
:10193000404699F8A35109F5D2712A461BF06CFA7A
:1019400000210022280623D0C9B2144609EB010069
:1019500090F8A421E2B1531CDFB29F421AD1EAB23F
:10196000BA4217D390F8A5011A19ED1A3944B042BA
:10197000E8D1C9B2E0B2EAB24944404401F5D271BB
:101980001BF04AFA28194146C0B205F025FB02E0D7
:10199000002000E01F2009B0BDE8F0832DE9FF41E1
:1019A000EA4D074695F8A00108B10C2028E017F091
:1019B0000F0807D008461C46164605F091FC18B1E2
:1019C00097201DE092201BE00020CDE9020095F851
:1019D000370010B102208DF8090002A80EF012FAAB
:1019E00017F0050F09D0DDE90A3031462246009094
:1019F000404606F071F90028E2D1002085F8A08168
:101A000004B0BDE8F08100BF80B5C2B08DF80D1004
:101A100004218DF80B00000A8DF80A100A218DF8B8
:101A20000C000DF106008DF8091005210FF06CFF78
:101A300042B080BD80B5C2B00420FF218DF80A00FD
:101A400000208DF8090002208DF808000DF1060035
:101A500021F0C4F942B080BD10B5012984BF9220A5
:101A600010BD0C4613F0D0F970B1C17D90291CBF98
:101A70000C2010BD4021002C08BF6FF07F01427F79
:101A800011434177002010BD022010BD80B5C2B0C7
:101A9000042210F06EF98DF80D108DF80A2009223D
:101AA0008DF80C000DF106008DF8092008228DF844
:101AB00008200A0E8DF810200A0C090A8DF80E1065
:101AC000FF218DF80F2021F089F942B080BD80B54B
:101AD000C2B010F0C3F901218DF80C000DF1060021
:101AE0008DF8091006210FF00FFF42B080BD80B5C0
:101AF000C2B010F0B3F90B218DF80C000DF1060007
:101B00008DF8091006210FF0FFFE42B080BD80B5B0
:101B1000C2B0042110F02DF9022210F0A0F80DF14E
:101B2000060010F037F942B080BD000010B50C4639
:101B300013F06AF93C498C4284BF922010BD68B111
:101B4000417E02291CBF0C2010BDDD49C1F88C402C
:101B5000417F41F010014177002010BD022010BDEF
:101B6000B0B5C2B00DF106058DF80C108DF80B0064
:101B7000194614468DF80D2005F108001BF04CF9AC
:101B80000420FF218DF80A0007208DF80900601D50
:101B900010F075FA42B0B0BD2DE9F84F01289CBF96
:101BA0000D46012902D99220BDE8F88FDDF8288082
:101BB000B8F1070FF7D3DDF82C90B9F1100FF2D878
:101BC000C145F0D3DDF830A0BAF1010FEBD8DDF854
:101BD00034B00446144883459CBF0E980128E2D8CF
:101BE000022A16469CBF1F46012BDCD813F0D2FCFC
:101BF00010B10C20BDE8F88FB1480E9980F89370B1
:101C000080F8926080F8895080F8884080F890A031
:101C100080F88B9080F88A8080F89110C0F88CB0A2
:101C20000020BDE8F88F00BF3F420F002DE9F043D0
:101C30008DB00FF0F8FE08D10FF0CCFC0420CDE9F8
:101C40000232CDE9041C10F029F80DB0BDE8F08394
:101C500004288FBF9220F34981F895000020704737
:101C600010B5F04C94F8A10120B100200CF0E9FE71
:101C700010B110BD0C2010BD04F5D07005F0A0F916
:101C8000002010BD2DE9F04F89B01F2803D9922004
:101C900009B0BDE8F08F83460C4600205946C2B219
:101CA0005A4509D2A25C32B1CBB29A42EFD201328C
:101CB0001044891AF3E783465FFA8BF6EEB30DF111
:101CC00005082146324640461BF0A6F8D54F4FF096
:101CD000000A97F8A3915FEA096030D05FFA8AFCA6
:101CE00000220CF10101D2B2B24209D27818531C81
:101CF00090F8A401E55C854216D0A05C1A18F2E7C2
:101D000007EB0C005FFA8BF390F8A4114D1CEAB2BC
:101D100002EB030BBBF11F0FB9D800F5D27108EB32
:101D200003001BF079F804E007EB0C0090F8A40125
:101D3000451CAA44A9EB0509CDE70020A8E75FFAF6
:101D40008BF00DF1050105F047F9A1E7042F002004
:101D5000F0B587B00C460646684611461D4604306D
:101D6000224606F085FFC0B9DDE90E32DDE90CC779
:101D7000DDE91010ADF81450ADF800608DF80240A8
:101D80008DF81A1069468DF818308DF816C08DF848
:101D900019208DF8177005F03FFB07B0F0BD00006B
:101DA0002DE9F84F9B4617460E46054606F04EFFB6
:101DB00008B1BDE8F88FBBF1000F4AD0DFF850AA98
:101DC000DAF8E0110AF5F070814208D00AF5F470F3
:101DD0000EF0A5FDABF1010480B2A04202DA98201A
:101DE000BDE8F88F0AF5EC7000900EF098FD000445
:101DF00011D0DAF8DC8108F118000EF090FD814670
:101E000008F120000EF08BFDB8F828104844084473
:101E100000F1010801E04FF001086FEA080080B20C
:101E2000013058453CBF6120BDE8F88FDAF8E091F9
:101E3000012F04D0022F0CD142F6010001E04FF433
:101E40002050012DA9F82A0006D0022D01D1102220
:101E500003E09220BDE8F88F022209F10800314624
:101E60000A9F1AF0D9FF4846A7F8008089F82C503D
:101E7000A9F828800EF04DFD484600990EF043FD6C
:101E800009F1180528460EF03BFD09F120000EF07F
:101E900037FD002C09DDDAF8E86130460EF039FD37
:101EA00030460FF043FC013CF3E738880BEB0001B0
:101EB000013989B206F094FB0020BDE8F88F00BF1D
:101EC000042F00200021002206F06ABDB0B5C2B088
:101ED0000FF054FE0DF1060510F089F810F002F92C
:101EE00001208DF8090004F10A0010F0C8F842B092
:101EF000B0BD7CB501AA6B46022106F035FB044655
:101F000060B9DDE900562946304602F00AF9284654
:101F100006F086FE706820F48050706020467CBD1C
:101F2000B0B5C2B0F82A144628BFF8220FF0A1FFBE
:101F30000DF106050FF0C1FC10F0D4F80E2010F0E2
:101F40004AF828BF08460FF0BFFF42B0B0BDB0B599
:101F5000C2B00FF013FE0DF1060510F048F810F0B6
:101F6000C1F81E208DF8090004F10A0010F087F86E
:101F700042B0B0BDF0B58FB0AF4E96F8CC01C007FF
:101F80001AD1294F41F6010001250DF13A01012333
:101F9000ADF80C0086F8CC510091788D800758BFC1
:101FA000042303A901200122FFF7FAFE40B100201B
:101FB000972486F8CC0100E0622420460FB0F0BDE3
:101FC0004FF4E06000248DF81E50BDF83A50ADF893
:101FD000340097F82A008DF836408DF83340ADF87C
:101FE0001C508007E9D420208DF832000420ADF881
:101FF000300042F60520ADF820000EA807A905F034
:102000000BFA0028D3D10948BDF838100022042368
:102010000024029002A80090284600F0DFF8002873
:10202000C5D1CAE7042F0020383100200100FFFF8E
:1020300080B5C2B00FF090FD1B218DF80C000DF1A2
:1020400006008DF8091004210FF05EFC42B080BD3F
:10205000B0B5C2B0F82A144628BFF8220FF009FF25
:102060000DF106050FF029FC10F03CF80F200FF0E1
:10207000B2FF28BF08460FF027FF42B0B0BDB0B591
:10208000C2B00FF07BFD0DF106050FF0B0FF10F0B0
:1020900029F81F208DF8090004F10A000FF0EFFF66
:1020A00042B0B0BDB0B5C2B08DF80F20120A0FF02B
:1020B00079FD0DF106050FF08BFD10F013F81820D7
:1020C0008DF8090004F109000FF0D9FF42B0B0BD4E
:1020D00080B5C2B08DF80D100FF03EFD10218DF8C7
:1020E0000C000DF106008DF8091005210FF00CFC15
:1020F00042B080BD80B5C2B00FF02EFD02218DF838
:102100000C000DF106008DF8091004210FF0FCFB06
:1021100042B080BDB0B5C2B00FF02BFE0DF106038A
:102120008DF80D108DF80C00002081420AD003EBD1
:10213000400412F81050257202EB400501306D7812
:102140006572F2E70C208DF80A0015208DF8090061
:10215000052000EB4100FF218DF808000DF106007D
:1021600020F03CFE42B0B0BD80B5C2B00C230FF0F1
:1021700019FD8DF80F20120A8DF80A3014230FF084
:1021800068FE0DF10600FF218DF810208DF8093052
:1021900008238DF8083020F021FE42B080BD80B5C4
:1021A000C2B00FF0D9FC17218DF80C000DF106001C
:1021B0008DF8091004210FF0A7FB42B080BD80B557
:1021C000C2B00C220FF0C7FD16220FF042FE0DF137
:1021D00006000FF035FD42B080BD0000F0B587B0BD
:1021E0000546E84890F8CC01C00701D197200EE0E1
:1021F0000C4606A928461E46174606F095FC28B947
:10220000069905AA204606F07FFC10B1602007B0B1
:10221000F0BD0C981FB105990968098C00E03146A2
:10222000CDE90017CDE902600020294622460323AC
:1022300006F034FEEBE700BF042F0020B0B5C2B0BB
:102240000FF0B0FC0DF1060514468DF80F208DF847
:102250000E108DF80C0005F10A0019461AF0DCFD8D
:102260000FF040FF13208DF80900E01D0FF007FF6D
:1022700042B0B0BD10B5C2B08DF80B000020449C38
:102280008DF80C10FF218DF811308DF80D208DF890
:102290000A0004208DF812408DF809000A208DF8FC
:1022A0000800100E8DF81000100C8DF80F00100AA9
:1022B0008DF80E000DF1060020F090FD42B010BD2B
:1022C00080B521F0B1FFC0B280BD00002DE9F04320
:1022D00093B021486FF01304042988BFA1F11904B9
:1022E000047060B221F0B0FE010630D10DF131086A
:1022F0000DF105094046494621F040FD8DF84B405F
:10230000002412AE0DF14707E5B222F0E5F80230E5
:10231000A8421BD918F80500052818BF022813D1B8
:1023200009EB450119F815000125497840EA01201B
:10233000ADF84800042D07D8304639468DF84A508C
:1023400021F056FF0135F5E70134DDE70020C0B28A
:1023500013B0BDE8F08300BF989C002000F0E0B807
:10236000B0B5C2B08DF80D10110A0FF002FD0DF1DD
:1023700006058DF80E201A461C468DF810308DF893
:102380000F108DF80C0005F10B0046991AF044FD72
:102390000820FF218DF80A000A208DF8090004F1B9
:1023A00008000FF06CFE42B0B0BDF0B585B00C4631
:1023B0000DF113011E4615460DF0B8FA01469220A4
:1023C000B5F5486F08D8062C06D329B19220AC4247
:1023D0009CBFB2087C2A01D905B0F0BD0A9A9220B0
:1023E00040F67647A2F10A03BB42F5D8731C97006A
:1023F0006B43BB42F0D88878800701D00C20EBE714
:102400000820ADF81020ADF80E60ADF80C50ADF816
:102410000A40ADF80800C8780DF10601000212303C
:10242000ADF806009DF813000DF0ACFB0028D3D1E9
:102430009DF8130047F2305104220DF0ABFB002051
:10244000CAE780B5C2B08DF80D1008210FF021FD4C
:1024500002218DF80C000DF106008DF809100F21F6
:102460008DF8081046998DF81610090A8DF8171086
:1024700045998DF81410090A8DF8151044998DF8B6
:102480001210090A8DF81310190A8DF811100FF0A7
:1024900060FD42B080BD80B5C2B008220FF05BFC89
:1024A00000220FF0D6FC0DF106000FF0C9FB42B080
:1024B00080BDB0B5C2B00FF05CFC0C460DF1060556
:1024C0008DF80D1011468DF80C0005F1080022461C
:1024D0001AF0A2FC0820FF218DF80A0001208DF8D7
:1024E0000900601D0FF0CBFD42B0B0BDB0B5C2B069
:1024F0000C460DF106058DF80C108DF80B001146F9
:10250000E81D22461AF088FC0020FF218DF80A0001
:1025100006208DF80900201D0FF0B1FD42B0B0BDBE
:1025200070B514460D46064610B9204621F087FEC8
:10253000304629462246BDE8704003F001BF000046
:10254000B0B50C46054600F067F8A0423CBF00203D
:10255000B0BDAF4800EB4501B1F86A202244A1F8B4
:102560006A20426FB0F87010091BA0F8701089B291
:1025700002EB810040681EBF52F8211000220A625F
:10258000B0BD00BF042F00202DE9F04F89B0804678
:10259000026A1046126A002AFBD10A6A0262B8F87F
:1025A00004308A88D418A8F80440002413F01F05CA
:1025B0000C628C802AD002F01F010DF10409DFF8B3
:1025C00054A0C5F120070091A9EB050101F1200BF2
:1025D000016A0446484620220E46D0476019494603
:1025E0003A46D047304659462A46D047316A3046A7
:1025F0000029EED1009848B12844202806D898F840
:102600000610304600F058F80020206209B0BDE8FE
:10261000F08F00BF19CE010810B57D49B1F87020C8
:10262000BAB1B0FA80F35B0901EB4303B3F86A4037
:10263000B3F864301B1B23EAE373D21A022809D0D3
:10264000B1F86E00B1F86810081A20EAE070121AAA
:1026500000E0002290B210BDF8B51D4614460646B3
:10266000200404BF0020F8BD366AAEB188B220282D
:1026700001D32039F4E7C1F12001A7B2304489B277
:10268000B94238BF0F4629463A461AF06DFB20B9C9
:10269000E41B3D440021E3E7A0B2F8BDB0B50C4611
:1026A00005462D6A3DB1246A2CB1284621462022D8
:1026B0001AF0B2FBF5E7B0BD70B5554AB2F870300C
:1026C0001BB1546F54F8234020621C4640B10134C2
:1026D000556FA6B2A2F8704045F82600006AF5E7EB
:1026E00001F00301181B02EB4101B1F86A2010440C
:1026F000A1F86A0070BD00BF00210A460131006ADE
:102700000028FAD190B27047F8B51C461546064627
:1027100014E088B2202801D320390FE03218C1F12B
:102720002000AFB280B21146B84238BF07462046FB
:102730003A461AF071FBED1B3C44002128041CBFF3
:10274000366A002EE5D1F8BD10B5304A0124304874
:102750000021938CA0F86810118C927F2333A0F88D
:10276000701004EB5314A0F86640022404EB5313DA
:102770005A430132A0F8642071B1836F0122446F83
:10278000914244F8223005D003F1240401321C6246
:102790002346F4E70020186210BD00BF02680A60FB
:1027A00002B941600160704700220A600268002A95
:1027B000024618BF426811604160704703688B424F
:1027C0000AD01A461B688B42FBD10B681360436822
:1027D0008B4208BF426002E00968016001B17047A6
:1027E000002141607047000070B5084D2422044666
:1027F000298C0EF0F0FC064E0422B067288C0130C4
:1028000081B220460EF0E7FC706770BD38310020C1
:10281000042F002070B50E46054602F11F0001216D
:10282000144601EB50112846FFF78AFE10B10681CD
:102830008571848070BD8179FFF73EBFF8B50D1DAD
:102840000446006A0021AAB2064668B12031074654
:10285000006A8BB23E469342F7D378B1A179FFF775
:102860002BFF0020386209E088B2101A1F30C0F335
:102870004F11A079FFF764FE18B130620020A580E7
:10288000F8BD9120F8BDF8B51C461546064613E084
:1028900088B2202801D320390EE0C1F12001AFB267
:1028A000304489B2B94238BF0F4621463A461AF041
:1028B000B3FAED1B3C44002128041CBF366A002EED
:1028C000E6D1F8BD10B52330012101EB50140120F1
:1028D000FFF7A2FEB0FBF4F010BD000070B500F0F1
:1028E00063F8044610B1204670BD00BF40F6B40046
:1028F000C2F200000021016041F2080541600120A0
:10290000C4F20265012616F097FBEFF3108072B651
:102910002968C9073DD04FF6E871C6F6FF712A68ED
:1029200001F180531A4002322A6045F8086C2A6887
:10293000D20709D02A68D2071CBF2A685FEAC27290
:1029400002D02A68D207F2D12A68D20609D52A68AD
:10295000D20644BF2A685FEAC26202D52A68D2065C
:10296000F2D42A68114029602968C90009D529686C
:10297000C90044BF29685FEAC10102D52968C900BE
:10298000F2D44FF68C41CFF6FF716A5822F0200244
:102990006A5080F31088012016F04CFB00F002F81A
:1029A000204670BD002070470020704710B50028F9
:1029B00004BF062010BD04460079012804BF03208F
:1029C00010BDFFF7F1FF002818BF10BD40F6B4009E
:1029D000C2F2000081680131816001202160207114
:1029E000FFF7E0FF002010BDF0B583B0EFF31085D6
:1029F00072B6012910D0002940F6B401C2F20001DC
:102A000018D1006801224B6802FA00F023EA0000A6
:102A10004860002498B993E040F6B4020068C2F21E
:102A200000020121536801FA00F0184300245060AD
:102A300005E000BF48680824002800F081800020DD
:102A400041F2080601900020C4F2026616F0F4FA82
:102A5000EFF3108072B63168C90766D14FF6E041D6
:102A6000CFF6FF71725822F4E04272504FF68C415B
:102A7000CFF6FF71725842F020027250715801F087
:102A80002001029102994FF6E871C7F6FF71326892
:102A900001F170431A4002F1805232603268D20074
:102AA00009D43268D2005CBF32685FEAC20202D445
:102AB0003268D200F2D5726802F0030201927268A5
:102AC00022F00302726032680A4002F10042326072
:102AD0003268B2F1FF3F0ADC3268B2F1FF3F06DC38
:102AE0003268B2F1FF3F02DC3268002AF0D4019A6A
:102AF000736823F003031A4372600046004632688D
:102B0000114041F00101316056F8081CC9070CD191
:102B100056F8081CC90704BF56F8081C5FEAC171C3
:102B200003D156F8081CC907EED080F310880020A6
:102B300016F080FA85F31088204603B0F0BD00BF80
:102B400041F208060120C4F20266012716F074FA69
:102B5000EFF3108072B63168C9073ED032684FF685
:102B6000E871C7F6FF710A400232326046F8087C0D
:102B70003268D2070AD03268D2071CBF32685FEAD7
:102B8000C27203D03268D207F2D100BF3268D206D7
:102B900009D53268D20644BF32685FEAC26202D504
:102BA0003268D206F2D4326801F1704111403160CE
:102BB0003168C90009D53168C90044BF31685FEA8E
:102BC000C10102D53168C900F2D44FF68C41CFF66D
:102BD000FF71725822F02002725080F31088012099
:102BE00016F028FA85F31088204603B0F0BD0000E7
:102BF000F0B581B005460020ADF8020002200C4679
:102C000016F01AFA002D4FF0060618BF002C03D15B
:102C1000304601B0F0BD00BF287948B340F6B40794
:102C2000C2F200072868B968421E8A4224D2796835
:102C300021FA00F0C00723D0FFF7B6FE06460028B1
:102C4000E6D13868296888421ED0284602F010FB79
:102C500041F20801C4F202610A684FF6E873C7F650
:102C6000FF731A4001320A6070B1072652E000BFBC
:102C70000426304601B0F0BD0526304601B0F0BD57
:102C80000826304601B0F0BD284602F0B3FB40F202
:102C90001071ADF80200C0F6F9310888498EBDF810
:102CA000022081421ED1E96840F6E44002FB00F0B8
:102CB000490840F6FF7222FA01F1B0FBF1F046F24A
:102CC0004071CFF6F4714FF47A7200FB021048F6AF
:102CD000AD31C6F6DB0180FB0101881200EBD1703B
:102CE00015E000BFEB685B089A4040F6E44302FB46
:102CF00003F241F6F113C0F27653A2FB0323C0EBBB
:102D00009312642302FB03F2081A92FBF0F01E30C8
:102D100000262080FFF746FE304601B0F0BD0000DF
:102D20002DE9F04F81B01546002240F678182A6050
:102D3000C2F2000898F80020012A1EBF0D2001B041
:102D4000BDE8F08F0E46002942D0EFF3108A72B62C
:102D50009B46014600283FD0D8F8140000285BD0DD
:102D6000D8E9052C26F07F4040EA016906F1010E02
:102D70000CF11804022714F8180C884272D088420B
:102D80004FF0090049D07B1E934246D214F80C0C38
:102D9000884255D04FF009003FD097423DD220786D
:102DA00088424ED088424FF0090036D07B1C9342B7
:102DB00033D2207B884243D088424FF009002CD088
:102DC000BB1C0437934204F13004D4D325E000BF88
:102DD0000A2001B0BDE8F08FD8E90220D8F8101021
:102DE0000844101AB0421DD9D8F8301006F1010974
:102DF0004846884740B326F07F4140F8041BD8F886
:102E00000C10286009EB0100C8F80C008AF3108848
:102E1000002001B0BDE8F08F09208AF3108801B0CE
:102E2000BDE8F08FBBF1000F04D008F11C0059463B
:102E30000EF01CF88AF310880A2001B0BDE8F08F6C
:102E40001F46CDF800A010E0BBF1000F64D008F1E0
:102E50001C0059460EF00AF88AF310880B2001B0C6
:102E6000BDE8F08FCDF800A0023F07EB470A08F15C
:102E700008020CEB8A00D0F80110D0F805000C1AFB
:102E800038BF002407CA11442044401AB04223D955
:102E9000D8F8301070467646884768B340F8049BEF
:102EA0002860D8F8180000EB8A00D0F80510D0F898
:102EB000012031448A42C0F8051005D2D8F80C0030
:102EC000311B0844C8F80C00DDF800A000208AF38C
:102ED000108801B0BDE8F08FBBF1000F04D008F1FD
:102EE0001C0059460DF0C2FFDDF800A00A208AF34D
:102EF000108801B0BDE8F08FBBF1000FDDF800A035
:102F00001EBF08F11C0059460DF0B0FF0B208AF3DC
:102F1000108801B0BDE8F08F8AF310880B2001B053
:102F2000BDE8F08F70B582B040F67810C2F20000B4
:102F300000F124040026204601960DF0A3FF78B985
:102F400001AD00BF204629460DF0A8FF019838B119
:102F500080688047204601960DF094FF0028F1D04C
:102F600002B070BD2DE9F04381B040F67817C2F28F
:102F700000073978012907D160B1810710D00724F3
:102F8000204601B0BDE8F0830D24204601B0BDE825
:102F9000F08300BF0224204601B0BDE8F08300BFEB
:102FA000796808248142EBD8BA6801EB820181423A
:102FB000E6D3EFF3108872B650F8041D0D0E21F021
:102FC0007F46796B06F101098847ADB37B69CBB3C6
:102FD000D7F818E0D7F80CC00EF11800022110F84D
:102FE000182C954232D095424FF0090444D04A1E25
:102FF0009A4241D210F80C4CA54225D04FF009045A
:103000003AD0994238D20278954220D095424FF07A
:10301000090431D04A1C9A422ED2047BA54213D017
:10302000A5424FF0090427D08A1C04319A4200F1CE
:103030003000D4D320E000BFF8680024A0EB0900E2
:10304000F86019E0092417E0114600E0023901EBAD
:1030500041000EEB800050F8051F50F8042C8A1A2E
:10306000012A05DB964238BF4A46ACEB0202FA6001
:10307000A1EB090101600024002007F11C0500906C
:1030800028460DF0FFFE70B96E46243728463146BB
:103090000DF004FF009938460DF0E8FE28460DF0CB
:1030A000F1FE0028F2D088F3108800F025F92046C0
:1030B00001B0BDE8F08300002DE9F04F81B040F68B
:1030C0007818C2F2000898F8001000291EBF0C20E2
:1030D00001B0BDE8F08F044680B3216803200029C9
:1030E00000F0068111F0030140F00281606848B3EE
:1030F000A16859B3E268EAB1E36801EB4102083B19
:10310000012700BF13F8085FB5FA85F56D095E6801
:103110003244B6FA86F676092E430025904238BF2F
:1031200001258F4245EA060503D2002D07F101076C
:10313000E8D05DB1042001B0BDE8F08F022001B0FD
:10314000BDE8F08F032001B0BDE8F08F00204546B8
:1031500045F82C0FC5E9010045E90A0045E90800DA
:1031600045E9060045E9040045E90200284600F06B
:10317000C7F82A680520002A00F0BA80696800298B
:1031800000F0B680A968002900F0B280D4E90001FF
:10319000C8E901019047A068D8F8301000EB400062
:1031A0008847C8F8180018B308F11C000DF04EFE4F
:1031B00008F124000DF04AFEA068D8F80C1000EBCE
:1031C000400200281144C8F81400C8F80C1000F0A0
:1031D0008B80D8F81020D8F818E0D4F80C90431E53
:1031E00000F0030C032B4FF0000B09D200253CE04C
:1031F000A06800281EBF062001B0BDE8F08FD3E70D
:1032000020F0030AA9F110000EF12907002500BFE4
:1032100010F8206F09EBC50104354C6810F8103C1C
:10322000224407F8293C0B7A47F8284C07F81D3C44
:10323000CB6847F824BC47F81C3C1A444B6947F854
:1032400018BC47F8103C1A440B7EC96907F8116C8A
:1032500047F80CBC07F8053C47F8041CC7F800B059
:103260000A44AA4507F13007D2D1BCF1000F39D08A
:1032700009EBC50005EB4503476819F835400EEB2F
:1032800083060020BCF1010F3A440EF82340C6F833
:103290000170C6F8050025D06B1C09EBC30403EBD5
:1032A0004306646819F833300EEB8607BCF1020F51
:1032B00022440EF82630C7F80140C7F8050011D0A7
:1032C000A81C09EBC00300EB400719F830005B684D
:1032D0000EEB87010EF8270000201A44C1F80130D8
:1032E000C1F80500C8F81020012088F8000000206F
:1032F00001B0BDE8F08F00002020002118F0F6BCDE
:1033000043F22D31C0F6000143F22132016043F255
:103310002931C0F60002C0F60001C0E90121704762
:10332000800018F09DBA000018F06EBB890018F0FC
:1033300049BB000045F67911C0F60001002015F0E8
:103340000FBB00002DE9F04F95B040F68069C2F246
:10335000000909F10C000DF079FD46F20902102078
:10336000C0F600020021002518F0B2FB46F21D0253
:103370000420C0F60002002118F0AAFB49F27034C4
:10338000C2F20004002021464FF4FC72C4E900554B
:1033900015F00CF9002015F0EFF949F6A450FB21C7
:1033A000C2F20000C0F2F80141624FF401518162A3
:1033B000B12146F6B072018442F2BC31C2F2000281
:1033C000C0E90021FB2145F22C72C0F2FC01C2F2DF
:1033D0000002C0E90312442140F240524FF48B53E3
:1033E000C0F20801C1F6086280F82250846043618F
:1033F000C0E90612C56202F0DBFD43F29448C2F256
:10340000000828B188F84C5015B0BDE8F08F00BF17
:1034100042F2A4223420C0F603020121ADF83E504E
:10342000ADF83C50ADF83A50ADF8385019F014F8FA
:1034300050B143F2D21203460020C0F6030202212B
:103440000DF05AFD08E000BF42F64D520020C0F6D4
:10345000030202210DF050FD40F204750FF67002D8
:1034600000200221C0F6F93500240DF045FD484644
:1034700040F8044F11A906221094ADF84840119469
:103480008480FDF731F948BBD5F8FC02411C15D00A
:1034900040F60421C0F6F931096889F80400000AF1
:1034A00089F80500080C0A0A89F80800080E89F84E
:1034B000061089F8072089F809000FE010A90020FC
:1034C0000EF030F8002800F0F7830820A9F8080073
:1034D00044F26530C1F62160C9F8040009F1040224
:1034E0000020062118F0B8FF40B143F23522034610
:1034F0000020C0F6030202211DE000BF42F6A052E8
:103500000020C0F6030202210DF0F6FC99F8080035
:1035100099F8051099F8062099F8076099F809308C
:1035200099F80470CDE90006CDE902210FF2CC72C2
:103530000020022104970DF0DFFC0021484640F8EE
:10354000201FCDE91111C0E90111C160CDE91311AE
:1035500011A91022FDF7C8F8D0BB55F8041C481C6F
:103560001CBF286810F101020CD143F212404BF647
:103570009A41C7F65600CFF2DE01C9E90801C9E950
:103580000A0125E00A0A89F8281089F8201089F82C
:10359000292089F821200A0C090E89F82B1089F8B6
:1035A0002310010A89F82C0089F8240089F82D10CD
:1035B00089F82510010C000E89F82A2089F82220AC
:1035C00089F82E1089F8261089F82F0089F827002D
:1035D00009F120021820102118F03EFF50B143F2EB
:1035E000E62203460020C0F6030202210DF084FC0F
:1035F00008E000BF42F631620020C0F6030202215B
:103600000DF07AFC0021484640F8301FCDE9111139
:10361000C0E90111C160CDE9131111A91022FDF714
:1036200063F800283ED12868411C1CBF696811F16D
:1036300001020DD14DF6FE4046F28751C0F6BA1098
:10364000C2F24311C9E90C01C9E90E012AE000BF29
:103650000A0A89F8381089F8301089F8392089F871
:1036600031200A0C090E89F83B1089F83310C14348
:1036700089F83C1089F834106FEA102189F83D1060
:1036800089F835106FEA10416FEA106089F83A2026
:1036900089F8322089F83E1089F8361089F83F0001
:1036A00089F8370009F130020820102118F0D4FE03
:1036B00050B143F2902203460020C0F603020221DB
:1036C0000DF01AFC08E000BF42F6EB520020C0F6F5
:1036D000030202210DF010FC0120192118F0AEFEAA
:1036E000B0B143F26B3203460020C0F60302022160
:1036F0000DF002FC18F074FEB0B143F2DB32034669
:103700000020C0F6030202210DF0F6FB14E000BF1A
:1037100043F6C3020020C0F6030202210DF0ECFBC9
:1037200018F05EFE0028E8D143F613120020C0F620
:10373000030202210DF0E0FB0FA80DF13A07009003
:103740000DF13E03012000211322019718F066FDC0
:1037500050B143F2AA3203460020C0F60302022110
:103760000DF0CAFB14E000BFBDF83E00BDF83A10F2
:10377000A8F80000BDF83C0043F6F202A8F80200E9
:10378000A8F804100020C0F6030202210DF0B4FBDB
:10379000BDF83E00BDF83C1040F200040022C2F229
:1037A00000041323009418F029FE48B143F2555247
:1037B00003460020C0F6030202210DF09DFB07E046
:1037C00043F62D220020C0F6030202210DF094FBE7
:1037D000BDF83E00BDF83A100EAF0022022300975C
:1037E00018F00CFE50B143F2115203460020C0F60F
:1037F000030202210DF080FB08E000BF43F6F9123E
:103800000020C0F6030202210DF076FB0020022109
:1038100002221FF0F7FD48B143F298420346002010
:10382000C0F6030202210DF067FB07E043F6A01289
:103830000020C0F6030202210DF05EFB012088F893
:103840000800012018F058FD50B143F2D34203465E
:103850000020C0F6030202210DF04EFB08E000BF7D
:1038600043F6CB120020C0F6030202210DF044FB08
:103870004BF2072140F20110C0F20101C0F6000036
:10388000C8F8101099F80410C8F80900102088F83A
:103890000D000809303099F8052099F8063099F89C
:1038A000077001F00F0537269F2988BF06EB11101E
:1038B000099005F1300099F8098099F8089008906E
:1038C0000A9505F137000025079017E03020C8F66B
:1038D0000230CCF815008320CCF819008CF81D803C
:1038E0008CF81E908CF81F708CF820308CF82120FA
:1038F0008CF822100BEB0E05192D25D204EB050CCC
:103900009CF813E005EB0E0ABAF1180F1CD805F16C
:10391000010B04EB0B05ED7CFF2DD7D0092DE9D170
:1039200004EB0A05EE7C582EE4D1AAF101062644E8
:10393000F07C5828DED10A980A280998F07434BF20
:1039400008980798E874D5E710200821CDE9001001
:103950004BF20720C0F20100002703900120012153
:10396000012200230297049718F088FC50B143F21B
:103970000D4203460020C0F6030202210DF0BCFAFE
:1039800008E000BF43F635120020C0F60302022112
:103990000DF0B2FA43F29448C2F2000898F80A0017
:1039A00040F6806440F2047AC2F20004C0F6F93AAC
:1039B000A0B118F017FC48B143F25842034600206A
:1039C000C0F6030202210DF097FA07E043F67012E9
:1039D0000020C0F6030202210DF08EFA48F6BC204A
:1039E000C4F2BF50119040F2CA50CBF65020129052
:1039F00044F24020C0F2B00013900020CFF26430B7
:103A000000211490BDF83E0010220223ADF84010B2
:103A100010AFCDE90031CDE90212049111AA0221C3
:103A20001623059718F092FC50B142F6C162034686
:103A30000020C0F6030202210DF05EFA08E000BF8C
:103A400043F6DA220020C0F6030202210DF054FAF8
:103A500042F6A439C0F60309002002214A46002795
:103A60000DF04AFA44F20005CEF20405286842F649
:103A7000507204F8400F2968C6B2C1F30323002036
:103A8000C0F603020221637000960DF035FA286833
:103A900042F67F72010CA1702968C0F307460B0E35
:103AA0000020C0F603020221E37000960DF024FA14
:103AB0008B2043F27A6220710020C0F603020221BB
:103AC0008B230DF019FA4FF6FC50CFF6FF705AF821
:103AD000000043F2EA6200F01F030020C0F6030278
:103AE000022163710DF008FA40F20170C4F806007B
:103AF000072043F62B02CDE900070020C0F60302A1
:103B000002210123A772029703970DF0F5F9832094
:103B100043F2A362E0720020C0F603020221832375
:103B20000DF0EAF98DF83770ADF834708DF8337018
:103B3000ADF83070ADF82E700DF12E070DF1370095
:103B40000DA90DF133020CAB00971FF03DFDBDF840
:103B5000340043F25D72C3B220730020C0F603024A
:103B600002210DF0C9F99DF8353043F2157200209D
:103B7000C0F60302022163730DF0BEF94FF0FF306F
:103B8000C4F81200C4F80E00002002214A460DF0CD
:103B9000B3F9BDF83E00BDF8401000221623009492
:103BA00018F02CFC50B142F6776203460020C0F6B4
:103BB000030202210DF0A0F908E000BF43F68C02D9
:103BC0000020C0F6030202210DF096F943F6B1225F
:103BD0000020C0F60302022100250DF08DF915F03A
:103BE000E3F94FF6FF7045F2CD42A8F806004FF416
:103BF0000070C0F60002002188F8185017F068FF26
:103C000008F11C0445F21D5320460021C0F60003B4
:103C10000022009518F07CF849F2692308F134007D
:103C20000021C0F601030022009518F071F843F658
:103C30005145C0F60305002002212A460DF05CF92B
:103C400043F68A220020C0F6030202210DF054F947
:103C50000EF06AFA43F683220020C0F60302022126
:103C60000DF04AF9002002212A460DF045F9062000
:103C700018F0D6FB50B142F60D7203460020C0F694
:103C8000030202210DF038F908E000BF43F6534269
:103C90000020C0F6030202210DF02EF901200025BC
:103CA00000F04AF820464EF6602118F085F988F8B1
:103CB0004C5015B0BDE8F08F1098017A89F80410C7
:103CC000D0F80910407BC9F80510FFF7F4BB00BF1E
:103CD0003D3D3E3E20537461727420426C655F48E6
:103CE00063695F4761705F476174745F496E6974AF
:103CF0002066756E6374696F6E0A0000202050752F
:103D0000626C696320426C7565746F6F74682041E2
:103D10006464726573733A20253032783A25303204
:103D2000783A253032783A253032783A2530327870
:103D30003A253032780A0000B0B588B0062800F283
:103D4000E480034600200424A0228021DFE803F061
:103D50000414081068788C000020052402E000BFDD
:103D6000032007244FF47A624FF4C86104E000BFD7
:103D700003200624A022802100250023CDE9005540
:103D8000CDE90255CDE90455069518F093FA58B3DC
:103D900043F2CF5203460020C0F6030202210DF089
:103DA000ABF80A2018F02CFA40B143F20562034642
:103DB0000020C0F6030202210DF09EF840F2000040
:103DC000C2F2000000F11301192018F0B1FAD8B1C5
:103DD00043F23C3203460020C0F60302022108B041
:103DE000BDE8B0400DF088B843F29440C2F2000044
:103DF00004765DA2002002210DF07EF80A2018F062
:103E0000FFF90028D1D1D9E743F662220020C0F69D
:103E10000302022108B0BDE8B0400DF06DB800BF4C
:103E200018F078FA002845D043F29A520346002051
:103E3000C0F60302022108B0BDE8B0400DF05CB846
:103E400040F20000C2F2000000F11301192018F046
:103E50006FFA002844D003462DA20020022108B0AA
:103E6000BDE8B0400DF048B843F29441C2F2000101
:103E700091F84C204FF4FA75B2FA82F04309C888E1
:103E800081F84C302821002A08BF4FF448710A46B7
:103E90000023009518F0EEFA50B343F2386203465F
:103EA0000020C0F60302022108B0BDE8B0400DF0CA
:103EB00023B800BF43F613320020C0F603020221EC
:103EC000002402250DF018F843F29440C2F20000DD
:103ED000C1884FF6FF72914216D0057608B0B0BD8A
:103EE00017A20020022108B0BDE8B0400DF004B8D0
:103EF00043F640320020C0F60302022108B0BDE8BC
:103F0000B0400CF0F9BF00BF047608B0B0BD00BFF0
:103F10006163695F6761705F7570646174655F613B
:103F200064765F64617461202D206661696C2C2069
:103F3000726573756C743A203078253032580A00F7
:103F40003D3D3E3E206163695F6761705F757064EF
:103F50006174655F6164765F64617461202D2053D4
:103F60007563636573730A003D3D3E3E206163697E
:103F70005F6761705F7365745F646973636F7665B3
:103F80007261626C65202D20537563636573730ADB
:103F90000000000070B582B00020012101F064FF34
:103FA0000120012101F060FF0220012101F05CFFEE
:103FB00040F29C2546F27906C2F20005C0F60006E2
:103FC000281D002101223346009517F0A1FE05F1BE
:103FD000240405F12800002101223346009417F043
:103FE00097FE05F1480405F14C00002101223346FB
:103FF000009417F08DFE02B070BD000080B5002067
:1040000001F098FE012001F095FE0220BDE88040FD
:1040100001F090BE70B52AA10446FCF789FC002887
:1040200046D028A12046FCF783FC002840D026A1DA
:104030002046FCF77DFC40F29C25C2F2000505F10C
:104040001C0698B321A12046FCF772FC70B321A195
:104050002046FCF76DFC58B31FA12046FCF768FC16
:1040600030B31EA12046FCF763FC05F14006E8B121
:104070001BA12046FCF75CFCC0B11BA12046FCF74D
:1040800057FCA8B119A12046FCF752FC80B118A139
:104090002046FCF74DFC05F1640638B115A1204619
:1040A000FCF746FC00281CBF002070BD01203070CA
:1040B00012A20020022123460CF01EFF012070BD39
:1040C000423100005357310042314C005357314CBC
:1040D00000000000423200005357320042324C00D0
:1040E0005357324C00000000423300005357330056
:1040F00042334C005357334C0000000025732070AE
:104100007265737365642062792053657269616CAE
:1041100020436F6D6D616E642E00000070470000DB
:104120007047086A1E2202710520888000207047AF
:10413000B0B51C6A012525711C6A6171110A1C6ADF
:10414000E171A271196A087209209880B0BD00005F
:1041500010B514468A88072A10D143689A051ED4E0
:10416000096A4A79897942EA0121172904D3E24A86
:10417000B2F8CE21172A07D2172208E00420022124
:1041800000220DF063FE16E0914238BF0A4643F468
:104190000071428041600188012002F0D9F9206A53
:1041A00003210171D449206AB1F8CE114171090A85
:1041B00081710720A080002010BD00BF2DE9FE4FB7
:1041C000009088889046062828D1CB4F0E46096A71
:1041D00000200DF1040B91F805A001900290D7F892
:1041E000049207F50174B9F1000F20D04D46D9F8BB
:1041F0000090308929898142F5D120462946FEF771
:10420000DDFA2846FEF778FAB7F80C12081A2946A4
:10421000A7F80C025846FEF7C7FAE4E70420182175
:1042200000224346FFF784FF0020BDE8FE8FD8F848
:104230002000192101710520BAF1010FA8F804002E
:104240002DD1019DF5B1286A2C680DF052FC86B283
:10425000304603F0F9FCC0B12A6AA988D379127AF2
:10426000093943EA022290F822300BB1008C00E0B9
:10427000C08B90420BD989B2254611448142E1D9C5
:104280000D2005E04FF0010A09E0012000E00720C1
:10429000182132464346FFF74BFF4FF0000A019DBD
:1042A000002DC1D02C68BAF1010F30D1286A0DF071
:1042B00020FC1FFA80FB584603F0C6FC0099064616
:1042C00003F06AFB8146286AC179007A41EA002737
:1042D000A8880921A0F1090828461FFA88F209EBED
:1042E0000703FEF711FA96F8220010B108EB070059
:1042F000F0831CB1206A0DF0FCFB00E0002080B2CE
:10430000834504D0009831464A4603F04EFB2846C8
:10431000FEF791FA2546C3E72DE9F04F89B08C8866
:1043200017460A2C07D80420062100223B46002409
:10433000FFF7FEFE23E00646086A89464179827946
:10434000C379057A41EA022143EA05231FFA81FB7A
:104350005B450DD309040BD090F80A8090F809A0B2
:10436000718838460493FEF769FA60B1952406E037
:10437000012006215A463B46FFF7DAFE002420467C
:1043800009B0BDE8F08F386A072105960171012058
:10439000ADF82200584603F069FC002800F0A9801F
:1043A0004AEA08210546A4F10B00009780B2039168
:1043B00021F0010107900191B84901F5EC710291DA
:1043C000DDE904610298854200F08B802C4634F8C8
:1043D000283FB34200F28580BDF822004A88121AB5
:1043E000042AC0F2808001980695B0F5205F23D1A1
:1043F0009B4574D805F108030DF0A6FDDDE9051510
:10440000039B6A8D93426AD1079A022A14BF102A2D
:10441000002864D128462346224650F8201F8842AF
:104420001CBF686A00F11C030DF12201009800F026
:1044300005FFDDE9051552E0A84658F8204FA045D4
:104440004DD044454BD0A2463AF81C0F584522D3D4
:10445000B04246D894F8230001281CD120460E46CD
:1044600003F09AFA03460DF06FFD054630462146EB
:104470000DF06EFC2189039A8A4208BF002805D1FD
:10448000E08B079A904208BF002D07D02746049E74
:10449000DDE9051500E027463C68D2E7059842882B
:1044A000BDF82200121A042A1DDB42F603008142E5
:1044B00042F6030108D1049E2746246844451CBFE8
:1044C00020898842F8D101E02746049E07F11C03A9
:1044D00000980DF12201524600F0B0FED8E72D6899
:1044E00070E7BDF82200009F022802D30430B88094
:1044F00044E70A203DE700BF042F00202DE9F04FDC
:1045000085B0834688881446092815D1086A417900
:104510008279C379007A43EA002741EA022085B212
:10452000AF420ED300040CD0BBF802102046FEF7B9
:1045300085F988B195250BE0042004210DF0D2F80F
:1045400006E0012004212A462346FFF7F1FD00255D
:10455000284605B0BDE8F08F2846039403F086FB9B
:10456000002800F08C80064694480024CDF804B062
:1045700000F5EC700290002002998E427AD033460A
:1045800033F8281FA94228BF8F4201D2A24623E058
:10459000A1B2002904BF01200224BBF80220A1B26D
:1045A000511A042971DBC1B201296ED104F1040A48
:1045B000DDF80C8002221FFA8AF14046FEF763F90B
:1045C000A01D06F12A03022281B24046FEF75BF9E4
:1045D000318D01208F424ED006F120094C462468CF
:1045E0004C4544D0A18BA942F9D3B94243D81FFA14
:1045F0008AF294F82380049662B1C1B2884543D10F
:10460000BBF802309A1A042A07DB012905D14FF0C2
:10461000010808E04FF0020A05E0122A34DB022903
:1046200032D14FF00208DDF80CB00AF1040604F1B3
:104630001C030222B1B25846FEF725F90AF1060022
:1046400004F10803B8F1010F81B2584605D10222E6
:10465000FEF719F90120B24605E01022FEF713F922
:104660000AF1120A4046DDF804B0049EB7E7366846
:10467000544681E7A2465FEA0A41544605D10A2022
:1046800004212A46039B60E75446039B0522196ACE
:104690000A71196A4871201D988058E7042F00207C
:1046A00070B5049C9CB116460546206A0A0A417101
:1046B0008271F01E072182B22046FEF7E4F8301D19
:1046C000A0801D20012D08BF1B20216A087170BD2C
:1046D0002DE9F04385B00746084615460C46FEF71F
:1046E0000BF88146A088092802D20026042015E094
:1046F000206A02234179807904AA41EA00263846DB
:10470000B1B200F0FCFC48B9DFF83C862C49B8F89F
:104710000C02C97F4844884209D90920B2B2162147
:104720002B46FFF705FD002005B0BDE8F083049E91
:1047300096F8260080071FD5786881031CD4216A6B
:1047400040F40030257991F8078091F8089078605E
:10475000384603F057FA0146A5F109000523B28B4C
:104760000294C0B2CDE9003048EA092083B20120AA
:1047700001F063FF6920D7E7A088043881B228469A
:10478000FEF75CF808B19520CEE728462146FDF7F4
:1047900085FF286A1721017108F5FE702146FEF792
:1047A0000DF808F501702146FDF7FEFFB8F80C0280
:1047B0004844A8F80C026720B6E700BF042F002089
:1047C000383100202DE9F843064688881446092828
:1047D00012D1086A4179827990F80780077A41EA14
:1047E000022085B2284603F041FA78B10146008DD7
:1047F000A84206D10B200AE004200C210CF072FF25
:104800000AE06A46284604F07FF940B101200C21F5
:104810002A460DF01BFB00252846BDE8F8830099C9
:1048200030460DF095FA0028F1D100997288C88BB6
:10483000D31E8342DEDA48EA07271FFA87F880454D
:1048400001D90720E3E791F82600400708D5B079A1
:10485000000705D43046424604F096F86925DBE7A8
:1048600020461146FDF7EAFF08B19525D4E7206AF6
:104870000D2101710098C18BB6F80290C91B8FB24F
:10488000314603F089F8A9F1010100EB0803204645
:104890008EB2B74238BF3E4632460521FDF7F3FFE0
:1048A0004FF6FF708642B1D0701DA080B3E70000C4
:1048B0002DE9F04F87B08046888892460B2818BFB4
:1048C00019283FD1086A42798379C479007A44EA89
:1048D000002942EA032085B2A9452BD3000429D040
:1048E0000DF10A070846394600F026FC07F10C01D5
:1048F0000DF11A00022218F08FFABDF81A0020F00C
:104900000100B0F5205F28D1564800F5EC76374617
:104910003F68B74200F0A380388DA842F8D3002F3B
:1049200000F09D80B8F802105046FDF787FFB0B147
:1049300095250EE0012010212A465346FFF7F8FB8B
:10494000002506E004201021002253460025FFF731
:10495000EFFB284607B0BDE8F08F1020EBE7002002
:104960004FF0000B0190B74271D03C4634F8280F4D
:1049700048456CD8BDF81A10788D884265D15FEA39
:104980000B400FD1DAF8200011214FF0020B01711A
:10499000142197F82C00012808BF0621DAF820001E
:1049A000019141711FFA8BF0B8F80210081A04281F
:1049B00050DB019880B2142806D006284AD197F817
:1049C0002C00012804D045E097F82C00022841D1A2
:1049D0000BF1040002222346009081B25046FDF7FD
:1049E00052FF384650F8201F884207D00BF10601CD
:1049F000786A022200F11C0389B204E00BF1060080
:104A00000222234681B25046FDF73DFF5946B8F8D1
:104A10000200DDF800B007F10803A0EB0B0084B240
:104A20000198043880B2A04238BF044601F1080062
:104A3000224681B25046FDF726FFA344B8F8021083
:104A40001FFA8BF0081A042801DB3F688BE75FEA46
:104A50000B4004D00BF10400AAF8040070E70A2010
:104A600069E700BF042F00202DE9F04FD1B00546C3
:104A7000888814460F460B2818BF192826D1386A93
:104A800041798279C379007A43EA002B41EA022016
:104A90001FFA80F9CB4511D300040FD0A9494DA8C6
:104AA000102218F0B9F949A9384600F045FB698889
:104AB0002046FDF7C3FE88B195250BE001200821B3
:104AC0004A462346FFF734FB002503E00420082173
:104AD0000CF008FE284651B0BDE8F08F484603F0C0
:104AE000C5F8002800F01C8107464DA84FF00008CB
:104AF00005940895CDF808B00C3006900020019080
:104B000002200990904800F5EC700390002004907A
:104B10000398874200F0F480079737F8280F58452C
:104B200000F2EE80099869885FFA88F580B2081A69
:104B3000A842C0F2E480079E0698022206F12A01EC
:104B400018F06AF94DA849A9102218F00DF90028AB
:104B500000F09580344654F8207FBC4200F09980E4
:104B6000089DA74200F09680BA463AF81C0F4845C7
:104B7000C0F08380584500F2C38097F8230007F106
:104B80000801012804D10698022218F045F94DA920
:104B9000084649A9102218F0E7F800286DD12846E8
:104BA00039460DF0D5F85FEA086101D0698812E056
:104BB000002840F0C180FA8B02F1020811460492ED
:104BC000FD2A88BF4FF0FF3869885FFA88F28B1E94
:104BD0009342B8BF9846099A5FFA88F592B2891A4B
:104BE000A942C0F28C80002840F089800498F98B9B
:104BF00080B2814240F0838008988079000710D409
:104C000097F8260040070CD5019ABAF800000DF17C
:104C10002A03D1B2013223F81100D0B201927C28CC
:104C20006DD84E46DDF82490C346DDF8148002228C
:104C3000534609F1040081B24046FDF724FEA24626
:104C4000089C3846214602F0A7FE034609F10600FB
:104C500081B2A81E82B24046D846FDF714FEA94490
:104C60006188DDF808B01FFA89F0CDF82490B146CC
:104C7000081AA8422546544642DB3F6871E765B1F1
:104C8000042D18D0122D3AD10798089D90F82C00C9
:104C90000CE0089D059C079F2FE00798089D90F861
:104CA0002C00012802D14FF004080CE04FF012084C
:104CB000022808D024E007984FF00408089D90F8D7
:104CC0002C0001281CD10998C24602223B4680468E
:104CD000043081B22046FDF7D6FD08F10600079F9B
:104CE00081B2AAF1020007F1080382B22046FDF763
:104CF000CAFDD044CDF82480D0463F6808E7089D1F
:104D00000998059C80B203280AD30199080609D0A6
:104D1000C9B20DF12A02284603F02AFE6925D9E618
:104D20000A20CCE6206A09210171206A80F80580FA
:104D300009980430A080C7E6BAF800200821059B36
:104D4000C0E600BFA5220308042F00202DE9F04F84
:104D5000C3B0054688889346092801D3C0070AD105
:104D600004200E2100225B460025FFF7E1F92846CA
:104D700043B0BDE8F08F0E4669885846FDF75EFDEA
:104D800008B19525F3E7B0880DF58579012405383C
:104D90001FFA80F80020019001201FFA80FAC24516
:104DA0005AD2043002224B4681B23046FDF7ACFCA9
:104DB000BDF80A0102F05AFF002849D00146028DD1
:104DC000BDF80A0182420CD16888A2B290423CD957
:104DD00091F82C20102701F10803012A08BF0227AF
:104DE00027E041AA03F090FE90BB419928460CF0C1
:104DF000AFFF00283ED1A0B26988814225D9A879A9
:104E0000000741980FD490F8261049070BD5019B55
:104E1000818B0DF10A07DAB2013327F81210D9B2EB
:104E200001937C2918D82946C78B02F0B5FD0346AB
:104E30006888001B80B2B84238BF07463A46201D3A
:104E400081B25846FDF71FFD3C440AF10200A4E779
:104E5000BDF80A2101200FE0A0B2022810D3019969
:104E600008060FD0C9B20DF10A02284603F080FDF2
:104E700069257CE7BDF80A210E215B46FFF758F94A
:104E8000002574E7DBF820000F210171201DABF82D
:104E90000400F5E72DE9FC410646888814460728FA
:104EA00021D1086A0CF025FE85B2284602F0DEFE0C
:104EB00018B30146008DA8421AD1206A0B2201F1D5
:104EC000080302711022204691F82C50012D08BFD2
:104ED00002220521FDF7D7FC1120012D08BF032078
:104EE0000430A0800EE004200A210CF0FBFB0AE055
:104EF00001AA284603F008FE40B101200A212A46F3
:104F00000CF0A4FF00252846BDE8FC81019930463D
:104F10000CF01EFF0028F1D1019991F826004007FE
:104F200008D5B079000705D43046002203F02CFDE7
:104F30006925E8E771882046FDF780FC08B19525D2
:104F4000E1E7206A0B21017101983146B6F8028031
:104F5000C78B02F021FD0346A8F1010080B2B842E0
:104F600038BF074620463A460521FDF78CFC781CE1
:104F700081B28142B4D0C0E72DE9FC410546888862
:104F80001446072802D2002704201BE0086A0E46B8
:104F900002234179807901AA41EA00272846B9B263
:104FA00000F0ADF870B9B0880199A0F1070891F848
:104FB000220008B1088C00E0C88B1FFA88F28242F8
:104FC00007D90D20BAB212210CF040FF0020BDE835
:104FD000FC8191F8260080070ED5A87980070BD4B4
:104FE0004FF400301FFA88F233460090284604F050
:104FF00030F96920BDE8FC810846294602F0CCFC66
:1050000007461FFA88F2304607213B46FDF77CFB36
:10501000019991F8220008B1A1F81E80206A13229C
:10502000027105203A46A080284602F0BEFCCDE77A
:10503000B0B50C4691F82710008815460FF032FFE6
:10504000012D1CD194F82510CA0704D010F0600F70
:1050500034D0C20632D58A0744BF42B2002A3BD4BC
:1050600011F0040102D010F010021DD009B10007A8
:1050700034D494F82400022121EA4000B0BD082D68
:1050800003D1C10644BF0420B0BD94F825100A071F
:105090000CD4CA0644BF42B2002A1DD411F020012C
:1050A0000ED010F010020BD10F20B0BD10F0600F29
:1050B00004D0082DEDD010F01002EAD10520B0BDCB
:1050C00009B100070AD4042D0AD0022D0DD194F89D
:1050D000240080070FD510E00820B0BD0C20B0BD23
:1050E00094F82400400706D507E0082D05D194F870
:1050F0002400000701D40320B0BD0020B0BDF8B5E6
:10510000064608461C4615460F4602F0AFFD50B154
:105110000146008DB84204BF0320F8BD38462A4638
:1051200003F0F2FC08B10120F8BD296830462246A0
:10513000BDE8F840FFF77CBFB0B5054680880C4657
:105140000B280DD10A492046102217F065FE04F104
:105150000C03284609210222BDE8B040FDF7D4BA6D
:105160002846092110222346BDE8B040FDF7CCBAFD
:10517000A52203082DE9FE438146086A0D4608264C
:105180000F210779522F08BF042608BF0321AB88DF
:10519000043B8B420EDB4179807941EA00242004F4
:1051A00008D04AB1D22F07D1B9F80000294611F032
:1051B00087FD08B1BDE8FE83A1B202AA4846334686
:1051C000FFF79DFF0028F5D14FF6ED70522F08BF75
:1051D0004FF6F970A9884718029991F82200BEB2DB
:1051E00008B1088C00E0C88B8642E3D891F826000D
:1051F00080070DD599F80600400709D44FF48020A8
:1052000032462B460090484604F023F8BDE8FE8362
:105210000846494602F0C0FB804628460721324630
:105220004346FDF771FA029991F8220000B1CF834D
:105230004846424602F0B9FBBDE8FE8370B506461B
:1052400008881C4613460D460222043081B23046BF
:10525000FDF719FB288802222346811C063029808D
:1052600081B23046FDF70FFB28880230288070BDE0
:105270002DE9F0418AB041F20C06C4F20266044600
:105280000020A6F10C08099040460BF051FB0028C5
:105290006CD1306800F003000990306820F0030002
:1052A000306056F8040C40F0004020F0170046F83B
:1052B000040C00BF56F8040CB0F1FF3F0DDC56F8AB
:1052C000040CB0F1FF3F08DC56F8040CB0F1FF3FCE
:1052D00003DC56F8040C0028ECD40998316804F17A
:1052E0000C0221F00301084330600046004607CA63
:1052F00004F11C07CDE90601D4E90D01009201AAD1
:10530000A8CF0BC2606C42F20001CBF20041884290
:10531000049505970CD00121C8F200018842D6F807
:10532000FC0212BF20F44000012161F3975004E019
:10533000D6F8FC02022161F39750C6F8FC02A0687F
:10534000716821F000510843706006A940460BF0D7
:10535000ABFB58B9206B316821F400110143304692
:1053600040F80C1969460BF0D9FB18B101200AB0BE
:10537000BDE8F08194F83C00B16B0F2321F00101EE
:105380000843B063206CB16B21F002010843B063A5
:10539000B068D4E90A1220F007000843B060B06892
:1053A00020F0700040EA0210B060D4E91110F269F8
:1053B000C1F3836700F01F0083409A4307FA00F0AF
:1053C0001043F061E06CB26800EA012022EA01219A
:1053D0004FF60072C0F2FF3210400843B060206800
:1053E00040F6B401C2F20001086000200AB0BDE836
:1053F000F0810000B0B582B0002141F20005C4F296
:105400000265ADF80610A9680446C90706D0A86869
:1054100080075CBFA8685FEA40704DD501F0BCF919
:105420002868400709D4286840075CBF28685FEAFD
:10543000407002D428684007F2D504202860E06854
:105440004FEAB00003280CD8DFE800F00228101C57
:105450004FF48050ADF80600286C6FF31F30ADF8A4
:105460000600BDF8060002B0B0BD00BF4FF480706A
:10547000ADF80600286CC0B2ADF80600BDF8060015
:1054800002B0B0BD4020ADF80600286C00F03F002F
:10549000ADF80600BDF8060002B0B0BD4FF4806064
:1054A000ADF80600286C6FF39F20ADF80600BDF83C
:1054B000060002B0B0BD00BFA8684FF6E871C7F69D
:1054C000FF7108400430A860AAE70000B0B50120D1
:1054D00000F076FC16F01EFF50B143F29A520346DC
:1054E0000020C0F603020221BDE8B0400BF004BD6D
:1054F00043F613320020C0F60302022100240225E5
:105500000BF0FAFC43F29440C2F20000C1884FF65F
:10551000FF72914214BF05760476B0BD4FF400705F
:10552000002116F0E3BB0000002000F071BC000079
:10553000012000F06DBC0000022000F069BC0000FA
:105540002DE9F04F89B090460E468AB116F00F0152
:10555000894608BF4FF01009002E08BF8946A6EB08
:10556000090642F6E86BC2F2000B46B92DE000BF17
:105570004FF0000942F6E86BC2F2000B2EB3A0F127
:1055800010040DF1140A00BF54F8100FDBE9007588
:1055900000BA78406168D4F808E0059008BADBE901
:1055A00002326840D4F80CC006909EFA8EF0584043
:1055B00007909CFA8CF0504008905046594609F0EC
:1055C000FFFA103EE0D104F11000B8F1000F00F036
:1055D000D8804FF0000EB9F1000FCDF820E0CDE9F2
:1055E00006EECDF814E054D0A9F10102032A09F027
:1055F000030C05D20023BCF1000F24D149E000BF09
:1056000009F01C035B42461C6FF003070DF1140AFE
:10561000F5190AEB0701EA784C68043744EA02629C
:105620004A602C7942EA04424A606C7942EA0422D8
:105630004A60AC792243DC1904344A60E8D13B1D4E
:10564000BCF1000F25D01826C15C26EAC30223F066
:10565000030405AF3D5991402943BCF1010F395175
:1056600017D0591C425C26EAC10421F003017D5881
:10567000A2402A43BCF1020F7A500AD0991C18228A
:10568000405C22EAC10221F003017B58904018439C
:10569000785001A80146CDF810E0CDE902EECDE941
:1056A000008E09F08DFADDE90120039F5100049D71
:1056B00041EAD073400040EAD778780040EAD57ECE
:1056C0004FEA450A002A56460193CDE9028E4FF073
:1056D000870C48BF8CEA4506B9F10F0F049624D811
:1056E000182525EAC90509F01C040DF114098020CC
:1056F00059F8047000FA05F52F4349F804705F006B
:105700004FEA4801002B47EAD87341EADE784FEAB6
:105710004E0040EADA7E4FEA4602CDE9013848BF42
:105720008CEA46021646CDE903E2DBE90027DBE915
:10573000025C5A40DDE90534DDE907015A40059273
:1057400088EA0702624006928EEA050250400790FE
:1057500086EA0C004840089005A8594609F030FA3E
:1057600009F056FA9BE80F00009F00BA09BA12BA76
:105770001BBA0590069107920893FB60BA607960A6
:10578000386009B0BDE8F08F10B5044609F060FA42
:105790000120214609F07EFA42F6E860C2F20000DC
:1057A0000021C0E90011C0E9021110BDF0B585B0BB
:1057B0001D4614460E46074609F04AFA03203946AC
:1057C000002D08BF022009F065FA30687168F268A0
:1057D000B368CDE9031001A80146CDE9012309F022
:1057E000EFF909F015FA01AB049A0BCB2260636064
:1057F000A160E06005B0F0BD09F00ABAB0B582B0B2
:10580000044600780022022801921FD004283BD1D0
:10581000581880B240F6806545F68D11C2F2000539
:10582000C0F600010B30E96105F11403810801AAFB
:105830000220FDF775FA68B115A2002002210BF0D5
:105840005BFB9124204602B0B0BD00BF002420467F
:1058500002B0B0BD0198B8B1042101726178417203
:10586000A1788172A2780B30E11C17F0D5FA01996A
:1058700005F10C000BF0FAFA04200021002416F0C8
:1058800035FA204602B0B0BD9124204602B0B0BD2A
:10589000416C6C6F63206661696C65640A0000008E
:1058A000B0B590B0124D95F85C0002280BD00128DD
:1058B00019D16C46204600F053F800200021224602
:1058C0000AF030FC0FE0684600F048F830B1684656
:1058D000FF21202217F0F2FA122100E000216A468F
:1058E00000200AF0DBFB002085F85C0010B0B0BDA2
:1058F000042F00204FF0FF3101EB10210C290CD8B0
:10590000DFE801F007090B0C0B0B0B0F0B0B0B1255
:10591000150001F083BC01F0FFBC7047C0B20AF073
:1059200067B9C0B203F0A8BAC0B211F0AFB9C0B243
:1059300010F04EBDFFF704BEFFF726BF0123FFF7AF
:1059400035BF000080B5FFF757FF00F087F9BDE8CD
:10595000804000F03DB80000FDF7ECBC00F03AB923
:1059600000F056B900F084B900F0CAB909F05ABC89
:1059700000F040B800F09AB800281DBF45F6791134
:10598000C0F600010020704712F0EABF0F201EF0A1
:1059900073B9000010B542F60074C2F2000420682A
:1059A0000089FFF7A7FF00F0F1FA20680BF08AFAF0
:1059B0002068BDE81040FDF7D5BA000042F600733C
:1059C00002468020C2F2000300211A6016F08EB950
:1059D00080B542F6F860C2F200000BF037FA45F6E7
:1059E00095128020C0F600020021BDE8804016F02C
:1059F0006FB800002DE9F04184B042F6F864C2F2BD
:105A00000004266888460546A642039617D003AFD1
:105A10003089A84208D0304639460BF00FFA039E71
:105A2000A642F5D10BE000BF4EB106F10C0016F016
:105A300049FB30460BF046FA3046FDF793FA00205A
:105A4000029002AA012009210023FDF769F900282C
:105A50001EBF642004B0BDE8F081029942F6F860F0
:105A6000C2F200000D810BF001FA029F45F6BD1352
:105A700007F10C004146C0F600030022009716F023
:105A800047F90146029821B90C3016F0DBF948B10C
:105A900002980BF017FA0298FDF764FA912004B00F
:105AA000BDE8F081002004B0BDE8F081F0B581B020
:105AB00042F6F867C2F200073C68BC4200940BD083
:105AC00005466E462089A84208D0204631460BF094
:105AD000B5F9009CBC42F5D101B0F0BD002CFBD063
