:020000040800F2
:100000000000022021770108931500089B150008C5
:10001000A3150008AB150008B31500084D02010830
:10002000000000000000000000000000BB150008F8
:10003000C915000800000000D7150008E5150008E4
:100040004D0201084D020108F11500084D0201089A
:100050004D0201084D0201084D0201084D02010840
:100060004D020108091600084D0201084D02010861
:100070004D0201084D0201084D0201084D02010820
:100080004D0201080D1700081B1700084D0201085A
:100090004D0201084D0201084D0201084D02010800
:1000A000291700084D0201084D0201084D02010800
:1000B0004D02010845160008591600084D020108B6
:1000C0004D0201084D0201084D0201084D020108D0
:1000D0004D0201084D0201084D0201084D020108C0
:1000E0004D0201084D0201084D0201084D020108B0
:1000F0004D0201084D0201086D1600084D0201086D
:100100004D0201084D0201084D0201088116000848
:100110004D0201084D0201084D0201084D0201087F
:100120004D0201084D0201084D0201084D0201086F
:100130004D020108C91600084D0201084D020108D0
:100140004D0201084D020108A51600084D020108E4
:100150004D0201084D0201084D0201084D0201083F
:1001600010B5054C237833B9044B13B10448AFF3F1
:1001700000800123237010BD300800200000000023
:10018000D803040808B5034B1BB103490348AFF378
:10019000008008BD0000000034080020D8030408D7
:1001A00010F8012B11F8013B012A28BF9A42F7D021
:1001B000D01A704710B488420DD98B1898420AD2D1
:1001C000811832B19A1A13F8014D9A4201F8014D83
:1001D000F9D110BC7047002AFBD00A44431E11F825
:1001E000014B8A4203F8014FF9D110BC704770B43B
:1001F000840746D04C1E002941D0D5B2034602E008
:10020000611EE4B30C4603F8015B9907F8D1032C97
:100210002ED9D5B245EA05250F2C45EA054519D951
:10022000264603F11001103E0F2E41F8105C41F8F4
:100230000C5C41F8085C41F8045C01F11001F2D853
:10024000A4F1100121F00F0104F00F041031032C70
:100250000B440DD91E4621460439032946F8045B98
:10026000FAD8211F21F0030104310B4404F00304E8
:100270002CB1D2B21C4403F8012BA342FBD170BCB9
:1002800070470C460346C2E781F0004102E000BF20
:1002900083F0004330B54FEA41044FEA430594EA46
:1002A000050F08BF90EA020F1FBF54EA000C55EA81
:1002B000020C7FEA645C7FEA655C00F0E2804FEA52
:1002C0005454D4EB5555B8BF6D420CDD2C4480EA34
:1002D000020281EA030382EA000083EA010180EA64
:1002E000020281EA0303362D88BF30BD11F0004FB2
:1002F0004FEA01314FF4801C4CEA113102D04042E8
:1003000061EB410113F0004F4FEA03334CEA133322
:1003100002D0524263EB430394EA050F00F0A7803A
:10032000A4F10104D5F1200E0DDB02FA0EFC22FA35
:1003300005F2801841F1000103FA0EF2801843FA29
:1003400005F359410EE0A5F120050EF1200E012A1A
:1003500003FA0EFC28BF4CF0020C43FA05F3C01858
:1003600051EBE37101F0004507D54FF0000EDCF1D1
:10037000000C7EEB00006EEB0101B1F5801F1BD37A
:10038000B1F5001F0CD349085FEA30004FEA3C0C7E
:1003900004F101044FEA445212F5800F80F09A8074
:1003A000BCF1004F08BF5FEA500C50F1000041EB78
:1003B000045141EA050130BD5FEA4C0C404141EB7C
:1003C0000101013C28BFB1F5801FE9D291F0000F77
:1003D00004BF01460020B1FA81F308BF2033A3F126
:1003E0000B03B3F120020CDA0C3208DD02F1140C1D
:1003F000C2F10C0201FA0CF021FA02F10CE002F158
:100400001402D8BFC2F1200C01FA02F120FA0CFC50
:10041000DCBF41EA0C019040E41AA2BF01EB045199
:10042000294330BD6FEA04041F3C1CDA0C340EDC97
:1004300004F11404C4F1200220FA04F001FA02F3DA
:1004400040EA030021FA04F345EA030130BDC4F198
:100450000C04C4F1200220FA02F001FA04F340EA8D
:100460000300294630BD21FA04F0294630BD94F03E
:10047000000F83F4801306BF81F480110134013D25
:100480004EE77FEA645C18BF7FEA655C29D094EA96
:10049000050F08BF90EA020F05D054EA000C04BF14
:1004A0001946104630BD91EA030F1EBF00210020FF
:1004B00030BD5FEA545C05D14000494128BF41F09E
:1004C000004130BD14F580043CBF01F5801130BD02
:1004D00001F0004545F0FE4141F470014FF000008D
:1004E00030BD7FEA645C1ABF194610467FEA655C3E
:1004F0001CBF0B46024650EA013406BF52EA0335E0
:1005000091EA030F41F4002130BD00BF90F0000FCD
:1005100004BF0021704730B54FF4806404F1320409
:100520004FF000054FF0000150E700BF90F0000FC2
:1005300004BF0021704730B54FF4806404F13204E9
:1005400010F0004548BF40424FF000013EE700BFB9
:1005500042004FEAE2014FEA31014FEA02701FBF49
:1005600012F07F4393F07F4F81F06051704732F07B
:100570007F4208BF704793F07F4F04BF41F40021D2
:10058000704730B54FF4607401F0004521F0004130
:100590001CE700BF50EA010208BF704730B54FF0BA
:1005A00000050AE050EA010208BF704730B511F0BB
:1005B000004502D5404261EB41014FF4806404F1F3
:1005C00032045FEA915C3FF4D8AE4FF003025FEA79
:1005D000DC0C18BF03325FEADC0C18BF033202EBFD
:1005E000DC02C2F1200300FA03FC20FA02F001FA57
:1005F00003FE40EA0E0021FA02F11444BDE600BFFA
:1006000053B94AB9002908BF00281CBF4FF0FF3179
:100610004FF0FF3000F07EB9ADF1080C6DE904CE6B
:1006200000F006F8DDF804E0DDE9022304B07047CD
:100630002DE9F04F099D0C46002B4DD18A420F4603
:1006400084469646B2FA82F360D94BB102FA03FEB1
:10065000C3F120029F4000FA03FC20FA02F2174384
:100660004FEA1E461FFA8EF44FEA1C42B7FBF6F122
:1006700006FB117701FB04F042EA0742904208D9D9
:100680001EEB020201F1FF3702D2904200F22D81EF
:100690003946121A1FFA8CFCB2FBF6F006FB102248
:1006A00000FB04F44CEA024C644508D91EEB0C0C28
:1006B00000F1FF3202D2644500F21A81104640EA8E
:1006C0000140ACEB040C002125B12CFA03F300220D
:1006D000C5E90032BDE8F08F8B4205D90DB1C5E9FF
:1006E000000100210846F5E7B3FA83F100294DD156
:1006F000A342C0F0F280904280F0EF80064623468D
:100700000846002DE6D0C5E90063E3E7002B40F082
:10071000A2808A1A4FEA1E471FFA8EF60121B2FB09
:10072000F7F407FB14204FEA1C4242EA004206FBA2
:1007300004F090420FD91EEB020204F1FF382CBFE7
:100740004FF001094FF00009904203D9B9F1000FB1
:1007500000F0C8804446121A1FFA8CFCB2FBF7F076
:1007600007FB102200FB06F64CEA024C664508D94E
:100770001EEB0C0C00F1FF3202D2664500F2BB808A
:100780001046ACEB060C40EA04409DE7C1F12006A0
:100790008B4004FA01FE22FA06F720FA06FCF44028
:1007A0008A401F434EEA0C0300FA01FE4FEA174845
:1007B0004FEA13491FFA87FCB4FBF8F008FB10441A
:1007C00049EA044400FB0CF9A1450ED93C1900F19B
:1007D000FF3A2CBF4FF0010B4FF0000BA14503D99E
:1007E000BBF1000F00F093805046A4EB09041FFA00
:1007F00083F9B4FBF8F308FB134403FB0CFC49EA50
:100800000444A44506D93C1903F1FF3801D2A4459C
:100810007AD8434643EA0040A4EB0C04A0FB0298BC
:100820004445CC46434602D306D1CE4504D20138D6
:10083000B9EB020C68EB07035DB1BEEB0C0264EB95
:10084000030404FA06F622FA01F3CC401E43C5E97C
:10085000006400213EE702FA03FEC3F1200104FA1E
:1008600003F200FA03FCCC404FEA1E4720FA01F1E4
:100870001FFA8EF6B4FBF7F00A4307FB1044110C85
:1008800041EA044100FB06F48C420ED91EEB010143
:1008900000F1FF382CBF4FF001094FF000098C42E6
:1008A00002D9B9F1000F2CD04046091B92B2B1FB1E
:1008B000F7F407FB141142EA014204FB06F19142EE
:1008C00007D91EEB020204F1FF3801D2914215D87C
:1008D0004446521A44EA004121E7861A64EB0303B6
:1008E00001200EE7023C724435E702397244D0E63B
:1008F000F4440238E3E6F444023842E7023C72442E
:10090000E7E702387144D0E7023B3C4482E7023813
:100910003C446AE7704700BF80B400AF064BD3F891
:10092000F430054A43F40003C2F8F43000BFBD467A
:100930005DF8047B704700BF000C024680B500AF35
:1009400000F054F800BF80BD80B582B000AF786081
:1009500000200FF07CFC00F063F800F07BF816F04C
:1009600085FE00F0B3F800F07BF800F08BF802F0A1
:1009700053FD02F065FD00F09DF8164B1B884FF605
:10098000FF7293420ED0134B1B88002B08D0114BE3
:100990001B889B025B0B03F57F533E335B0302E036
:1009A0000D4B00E00C4B184611F040FE0346002BA7
:1009B00001D000F057FB00F087FF0121022011F069
:1009C00051F900200FF04EFC002318460837BD46B1
:1009D00080BD00BFA007F90B00C00F0880B500AFB5
:1009E0004FF0FF3020F096F900BF80BD80B582B097
:1009F00000AF00237B603B1D1946002015F052FE1E
:100A00000346002B03D00C201BF016FB04E07B6890
:100A10009B7B18461BF010FB00BF0837BD4680BD0E
:100A200080B500AFFFF778FF20F09CFB074819F076
:100A30006BFC00F091FA064B93E8030014F036F8D3
:100A400014F038FE15F014F900BF80BD40000030EE
:100A50000000002080B500AF16F064FA00BF80BD32
:100A600080B500AF102010F0C1FD10F075FD10F042
:100A7000B7FC034A0021012020F0CEFA00BF80BD60
:100A8000D114010880B500AF094A00214FF48070ED
:100A900020F0C2FA0121012011F0E4F80021022027
:100AA00011F0E0F80021002011F0DCF800BF80BD5B
:100AB000E11F010880B500AF034A0021402020F06B
:100AC000ABFA00BF80BD00BFD1F9000880B500AF10
:100AD000074814F045F80346002B01D000F0C2FA95
:100AE000044A0021202020F097FA00BF80BD00BFFB
:100AF000180000207552010880B400AF00BFBD4649
:100B00005DF8047B704780B400AF00BFBD465DF860
:100B1000047B704780B400AF00BFBD465DF8047B26
:100B2000704780B500AF0021402020F097FA00BF49
:100B300080BD80B500AF0021012020F08FFA00BFFA
:100B400080BD000080B483B000AF78607B68074A46
:100B50001A607B68064A5A607B68064A9A6000BF42
:100B60000C37BD465DF8047B704700BF890B000859
:100B7000A70B0008C30B000880B500AF00212020A0
:100B800020F06CFA00BF80BD80B582B000AF786005
:100B900039603B689B001946786814F097FC00BFE9
:100BA0000837BD4680BD80B582B000AF78607B68F5
:100BB0009B00184614F0BEFB034618460837BD4696
:100BC00080BD80B582B000AF7860786814F042FCD8
:100BD00000BF0837BD4680BD80B500AF00214FF48F
:100BE000807020F03BFA00BF80BD80B400AF00BF32
:100BF000BD465DF8047B704780B400AF00BFBD46C2
:100C00005DF8047B704780B582B000AF78600B461A
:100C10007B807B881946786802F0ACFC00BF0837FF
:100C2000BD4680BD80B483B000AF7860084B5B6880
:100C300023F480727B68DB4303F48073044913431D
:100C40004B6000BF0C37BD465DF8047B704700BFAA
:100C50000008024680B400AF054B1B68044A43F00D
:100C60000103136000BFBD465DF8047B704700BF01
:100C70000004034080B483B000AF7860064B1B686B
:100C800023F0040204497B6813430B6000BF0C3758
:100C9000BD465DF8047B70470004034080B500AF9B
:100CA00017F012F8FFF74AFE00F012F800F07EF895
:100CB00000F0A0F900F096F800F0CAF800F0DCF8B7
:100CC00000F0B8F80020FFF73FFEFFF787FEFCE7D3
:100CD00080B598B000AF07F12003402200211846EC
:100CE0003EF0DCFE3B462022002118463EF0D6FEB8
:100CF000022019F0A9FC4FF4803019F03BFC0346A8
:100D0000002B01D000F0AEF919F0EEFA264BD3F823
:100D1000F03023F01803244A43F00803C2F8F030FF
:100D200007233B624FF480337B620023BB62812345
:100D3000FB624FF480733B6310237B6300233B64AF
:100D400007F12003184619F093FD0346002B01D04C
:100D500000F088F93F233B6002237B600023BB60E7
:100D60000023FB6040233B6100237B610023BB61C8
:100D70000023FB613B46002118461AF0A9FA0346FE
:100D8000002B01D000F06EF9022017F023FA0E209C
:100D900016F0BAFF0346002B01D000F063F900BF44
:100DA0006037BD4680BD00BF000C024680B592B0E2
:100DB00000AF3B464822002118463EF06FFE4FF43C
:100DC00000433B604FF480237B643B4618461AF097
:100DD000A9FD0346002B01D000F044F900BF4837BD
:100DE000BD4680BD80B582B000AF114BD3F88830CE
:100DF0000F4A43F00103C2F888300D4BD3F8883016
:100E000003F001037B607B68002206211D2017F0A0
:100E100029F91D2017F07EF9002205211E2017F068
:100E200021F91E2017F076F900BF0837BD4680BDB6
:100E3000000C024680B500AF4FF48070FFF7F2FE61
:100E40000020FFF717FFFFF705FF00BF80BD000080
:100E500080B500AF064B074A1A60054819F04AFCF6
:100E60000346002B01D000F0FDF800BF80BD00BF9D
:100E7000041800200060024080B594B000AF07F174
:100E8000340300221A605A609A60DA601A615A616B
:100E90009A613B1D3022002118463EF0FFFD2C4B8D
:100EA0002C4A1A602A4B1F229A60294B00221A6191
:100EB000274B00225A61264B00229A61244B4FF0A7
:100EC0008042DA61224B00221A62214B4FF4807279
:100ED0005A621F481BF0F4F80346002B01D000F0C3
:100EE000C1F800237B6300233B6400237B64002361
:100EF000BB6407F13403194615481BF027FF03466E
:100F0000002B01D000F0AEF811481BF093FE034611
:100F1000002B01D000F0A6F800233B620023BB6049
:100F20000023BB614FF07C53FB614FF480733B6344
:100F30003B1D0122194606481BF006FA0346002B0A
:100F400001D000F08FF800BF5037BD4680BD00BF14
:100F5000101800200078004680B500AF234B244ACB
:100F60001A60224B4FF4E1325A60204B00229A6003
:100F70001E4B0022DA601D4B00221A611B4B0C2213
:100F80005A611A4B00229A61184B4FF40042DA6101
:100F9000164B00221A62154B00225A62134B002294
:100FA0009A6212481BF054FF0346002B01D000F058
:100FB00059F800210D481EF097FD0346002B01D083
:100FC00000F050F8002109481EF004FE0346002BF3
:100FD00001D000F047F805481EF02EFD0346002B17
:100FE00001D000F03FF800BF80BD00BF40180020D6
:100FF0000038014080B485B000AF194BD3F88C3075
:10100000174A43F00203C2F88C30154BD3F88C30EA
:1010100003F00203FB60FB68114BD3F88C30104ADD
:1010200043F00103C2F88C300D4BD3F88C3003F041
:101030000103BB60BB680A4BD3F88C30084A43F00D
:101040000403C2F88C30064BD3F88C3003F0040351
:101050007B607B6800BF1437BD465DF8047B70473A
:10106000000C024680B400AF72B600BF00BFFDE7BF
:1010700080B582B000AF78603960FFF7F3FF00BF42
:101080000837BD4680BD000080B582B000AF114B6F
:10109000D3F894300F4A43F00403C2F894300D4B58
:1010A000D3F8943003F004037B607B6800220121B5
:1010B000092016F0D7FF092017F02CF8002205218F
:1010C000422016F0CFFF422017F024F800BF083767
:1010D000BD4680BD000C024680B485B000AF78608C
:1010E0007B681B680B4A93420ED10B4BD3F88830B8
:1010F000094A43F48053C2F88830074BD3F888304C
:1011000003F48053FB60FB6800BF1437BD465DF8F5
:10111000047B704700300240000C024680B483B06C
:1011200000AF78607B681B68084A934207D1084B80
:10113000D3F88830064A23F48053C2F8883000BFC1
:101140000C37BD465DF8047B704700BF003002409D
:10115000000C024680B485B000AF78600A4BD3F82B
:101160008830094A43F40033C2F88830064BD3F87C
:10117000883003F40033FB60FB6800BF1437BD46C2
:101180005DF8047B704700BF000C024680B596B046
:1011900000AF786007F110034822002118463EF0A6
:1011A0007DFC7B681B68174A934226D14FF480432D
:1011B0003B614FF480733B6507F1100318461AF04A
:1011C000B1FB0346002B01D0FFF74CFF0E4BD3F8C9
:1011D000A8300D4A43F40013C2F8A8300A4BD3F8E4
:1011E000A83003F40013FB60FB68002204210220F6
:1011F00016F038FF022016F08DFF00BF5837BD46AD
:1012000080BD00BF00780046000C024680B59CB04F
:1012100000AF786007F15C0300221A605A609A60A0
:10122000DA601A6107F114034822002118463EF0E3
:1012300035FC7B681B68794A934240F0EA800123C1
:101240007B610223BB6107F1140318461AF06AFBA5
:101250000346002B01D0FFF705FF714BD3F8A430F4
:101260006F4A43F48043C2F8A4306D4BD3F8A430E6
:1012700003F480433B613B69694BD3F88C30684A87
:1012800043F00203C2F88C30654BD3F88C3003F086
:101290000203FB60FB68624BD3F88C30604A43F07A
:1012A0000103C2F88C305E4BD3F88C3003F001039D
:1012B000BB60BB684FF48053FB6502233B66002391
:1012C0007B660023BB660723FB6607F15C031946B8
:1012D000544818F0C5FC4FF48073FB6502233B664D
:1012E00000237B660023BB660723FB6607F15C03D4
:1012F00019464D4818F0B4FC4C4B4D4A1A604B4B04
:101300000B225A60494B00229A60484B0022DA6057
:10131000464B00221A61454B4FF400225A61434B61
:1013200000229A61414B0022DA61404B00221A628E
:101330003E4B01225A623D4B01229A623B4B0022F6
:10134000DA623A4B00221A63384B00225A6337485C
:1013500017F094FA0346002B01D0FFF783FE7B6859
:10136000324AC3F88020314A7B68D36510212F4868
:1013700017F060FF0346002B01D0FFF773FE2D4BE3
:101380002D4A1A602B4B0C225A602A4B00229A607D
:10139000284B4FF48062DA60264B08221A61254BF5
:1013A00000225A61234B00229A61224B0022DA610B
:1013B000204B00221A621F4B01225A621D4B012250
:1013C0009A621C4B0022DA621A4B00221A63194BF4
:1013D00000225A63174817F051FA0346002B01D038
:1013E000FFF740FE7B68134ADA67124A7B68D365D1
:1013F0001021104817F01EFF0346002B01D0FFF705
:1014000031FE002207212E2016F02CFE2E2016F091
:1014100081FE00BF7037BD4680BD00BF003801406F
:10142000000C02460004024200000242081900209B
:10143000D0000240801900205000024080B582B0E8
:1014400000AF78607B681B68134A93421FD1134B2F
:10145000D3F8A430114A23F48043C2F8A4304FF4E7
:1014600080510F4818F00EFE4FF480710D4818F0AF
:1014700009FE7B68D3F88030184617F093FB7B6831
:10148000DB6F184617F08EFB2E2016F05BFE00BFB8
:101490000837BD4680BD00BF00380140000C024641
:1014A000000402420000024280B483B000AF034651
:1014B000FB7197F90730002B0BDBFB7903F01F0260
:1014C000074997F907305B09012000FA02F241F859
:1014D000232000BF0C37BD465DF8047B704700BF7A
:1014E00000E100E080B483B000AF0346FB7197F9E0
:1014F0000730002B12DBFB7903F01F020A4997F932
:1015000007305B09012000FA02F2203341F8232062
:10151000BFF34F8F00BFBFF36F8F00BF00BF0C370B
:10152000BD465DF8047B704700E100E080B400AF89
:10153000064BD3F80832054A23F48033C2F8083248
:1015400000BFBD465DF8047B704700BF000C02463B
:1015500080B483B000AF78607B686FF001021A61DD
:1015600000BF0C37BD465DF8047B704780B483B084
:1015700000AF78607B681B6903F00103012B01D188
:10158000012300E0002318460C37BD465DF8047BBC
:10159000704780B400AF00BFFDE780B400AF00BF6C
:1015A000FDE780B400AF00BFFDE780B400AF00BF2F
:1015B000FDE780B400AF00BFFDE780B400AF00BF1F
:1015C000BD465DF8047B704780B400AF00BFBD46E8
:1015D0005DF8047B704780B400AF00BFBD465DF886
:1015E000047B704780B500AF16F00CFC00BF80BDD7
:1015F00080B500AF03481BF0E3F902481BF044FB41
:1016000000BF80BD1018002080B500AF0C4B5B6D93
:1016100003F01003102B05D1094B10229A6515F029
:1016200013FF0AE0064B5B6D03F04003402B04D12F
:10163000034B40229A6515F083FE00BF80BD00BFBA
:10164000000C024680B500AF024817F092FC00BFC4
:1016500080BD00BF8019002080B500AF024817F0A0
:1016600088FC00BF80BD00BF0819002080B500AF16
:1016700002481BF093FE00BF80BD00BF4018002051
:1016800080B500AF0648FFF771FF0346012B04D178
:101690000348FFF75DFF15F005FF00BF80BD00BFE9
:1016A0000044014080B500AF064B1B68002B02D000
:1016B000044B1B689847FFF739FFBFF36F8F00BFDC
:1016C00000BF80BD1860002080B500AF3D20FFF74F
:1016D00009FF0C4B1B68002B02D00A4B1B68984774
:1016E000094B1B78DBB2002B07D0002205213D20DF
:1016F00016F0B8FC044B00221A703D20FFF7D4FE10
:1017000000BF80BD1C6000203860002080B500AFA5
:10171000012016F0E9F900BF80BD80B500AF0220BE
:1017200016F0E2F900BF80BD80B500AF002016F0D2
:10173000DBF900BF80BD000080B586B000AF7860E7
:10174000144A154BD31A7B617B693B61134B1B68B1
:10175000002B02D1114B124A1A60104B1A687B6899
:1017600013443A699A4207D23EF0A0F903460C228C
:101770001A604FF0FF3309E0084B1B68FB60074B12
:101780001A687B681344054A1360FB6818461837CB
:10179000BD4680BD0000022000100000F8190020A6
:1017A00078AC002080B483B000AF87ED010A3860C8
:1017B0007A683B681A6000BF0C37BD465DF8047B51
:1017C000704780B485B000AF786039607B681B6873
:1017D000FB60FA683B681A6000BF1437BD465DF8CD
:1017E000047B704780B400AF044B1B68C3F30B034A
:1017F0001846BD465DF8047B704700BF004004E01A
:1018000080B400AF044B1B681B0C9BB21846BD464E
:101810005DF8047B704700BF004004E080B400AF77
:10182000034B1B681846BD465DF8047B704700BF3C
:10183000000AF90B80B400AF034B1B68DBB21846FB
:10184000BD465DF8047B7047040AF90B80B400AF15
:10185000034B1B681B0A1846BD465DF8047B7047A6
:10186000040AF90B80B400AF034B1B681846BD4651
:101870005DF8047B704700BF0007F90B80B400AF30
:10188000034B1B681846BD465DF8047B704700BFDC
:101890000407F90B80B400AF034B1B681846BD4624
:1018A0005DF8047B704700BF0807F90B80B400AFF8
:1018B000044B1B6803F01F031846BD465DF8047B0C
:1018C000704700BF0005F90B80B584B002AF4348F4
:1018D00015F0F2FD424A002110201FF09DFB414A05
:1018E000002104201FF098FB3F494FF000024FF009
:1018F0000003C1E900234FF4FC723B49002011F0C2
:10190000D7F8002011F00AFA00F0F0FD0346002B92
:101910005CD100F043FE1EF093FD344B00221A769A
:10192000324B4FF6FF72DA80314A00214FF40070DB
:101930001FF072FB002300932E4B002200212E4843
:101940001FF020FC002300932C4B002200212C4888
:101950001FF018FC2B4A0221002013F091F82A4AAC
:101960000221002013F08CF80CF08FFA0AF092FE9E
:1019700008F05FFA0DF008FA05F054F802F000FBE9
:10198000224A0221002013F07BF81E4A0221002087
:1019900013F076F806200DF007FC0346FB71FB7987
:1019A000002B06D0FB791A4A0221002013F068F8B8
:1019B00004E0184A0221002013F062F8012000F030
:1019C00033FC4EF660210C481FF080FC074B0022D0
:1019D00083F84C2000BF0837BD4680BDFC190020AD
:1019E00085300008912C0008F04F00202C1A0020B0
:1019F00015310008E5300008481A0020FF300008C3
:101A0000601A0020F0030408F40304081C0404080E
:101A10004C04040890040408B0B59CB006AF78608C
:101A2000972387F857307B6801333B653B6D1B7804
:101A3000FF2B00F0AB82FF2B00F3C6833E2B00F0A0
:101A400090803E2B00F3C083052B02D0102B78D062
:101A5000BAE33B6D0233FB60FB68B3F801309AB226
:101A6000AC4BDB889A4219D1AA4B4FF6FF72DA8051
:101A7000A84B00221A76A84A0221002013F000F891
:101A8000FB68B3F801309BB21A46FB68DB78009321
:101A90001346A24A0221002012F0F2FF01F0FDFAE3
:101AA0009F4B01221A709F4B01221A709E4B0122FC
:101AB0001A709E4B01221A709D4B01221A709D4B89
:101AC00001221A70FB68B3F801309AB2944B5A8025
:101AD000FB68B3F801309AB2924B5A80FB68B3F8B6
:101AE00001309AB2904B5A80FB68B3F801309AB239
:101AF0008E4B5A80FB68B3F801309AB28C4B5A80F7
:101B0000FB68B3F801309AB28A4B5A8084480CF0D3
:101B1000A9F984480AF0AAFD834808F077F98348B8
:101B20000DF01EF9824804F069FF824802F014FAB1
:101B3000012000F079FB4EF660217F481FF0C6FBC4
:101B400043E33B6D02333B617C4A0221002012F0EB
:101B500097FF3B691B787A4A0221002012F090FF20
:101B600033E33B6D02333B633B6B1B78013B0B2B39
:101B700000F20A8201A252F823F000BF0B1E0008F7
:101B8000891F0008AD1B0008891F0008891F000875
:101B9000891F0008891F0008891F0008891F000885
:101BA0003F1C0008891F0008331C000800233B620B
:101BB0003B6B0133FB61FB69B3F803309BB21A4600
:101BC00040F2E24302FB03F33B625E4A0221002043
:101BD00012F056FF3B6A5C4AA2FB032399093A6A5A
:101BE000594BA3FB02039B094FF47A7000FB03F3EC
:101BF000D31A564AA2FB0323DA08FB69B3F805306F
:101C00009BB21C46FB69B3F807309BB218460346EB
:101C10009B0003445B001846FB691B78039302900A
:101C2000019400920B464A4A0221002012F028FF3C
:101C3000ABE13B6B0133FB6201F02FFAA5E100231E
:101C4000BB623B6B01337B627B6AB3F817309BB29C
:101C50001A4640F2E24302FB03F3BB627B6AB3F82D
:101C600001309BB23B4A0221002012F009FF7B6A3F
:101C70009B7A1D467B6A5B7A1A467B6A1B7A1946F9
:101C80007B6ADB7918467B6A9B791C467B6A5B79A9
:101C9000049303940290019100922B462E4A022154
:101CA000002012F0EDFEBB6A274AA2FB032399092C
:101CB000BA6A254BA3FB02039B094FF47A7000FB21
:101CC00003F3D31A214AA2FB0323DA087B6AB3F891
:101CD00019309BB21C467B6AB3F81B309BB2184686
:101CE00003469B0003445B0018467B6A1B78039302
:101CF0000290019400920B46184A0221002012F033
:101D0000BFFE044B1B7E012B2AD1024B03221A7605
:101D100029E000BF2C1A0020C8040408F4040408B9
:101D20007C1A0020801A0020841A0020881A0020C3
:101D30008C1A0020901A0020481A0020340504084C
:101D40005805040870050408D34D6210CDCCCCCCE6
:101D5000A4050408380604088C060408D006040804
:101D6000AD4B02221A767B6AB3F801309AB2AA4BC5
:101D7000DA80AA4B00221A70A94B00221A70A94BD4
:101D800000221A70A84B00221A70A84B00221A7069
:101D9000A74B00221A707B6AB3F801309AB29F4BAE
:101DA0005A807B6AB3F801309AB29D4B5A807B6AA5
:101DB000B3F801309AB29B4B5A807B6AB3F801307A
:101DC0009AB2994B5A807B6AB3F801309AB2974B1A
:101DD0005A807B6AB3F801309AB2954B5A808F488B
:101DE0000CF040F88E480AF041FC8E4808F00EF8DE
:101DF0008D480CF0B5FF8D4804F000FE8C4802F0D1
:101E0000ABF88C481FF08CFABFE00023BB613B6B42
:101E100001337B617B69B3F80B309BB21A4640F209
:101E2000E24302FB03F3BB617B69B3F801309BB271
:101E3000814A0221002012F023FE7B699B7A1D4615
:101E40007B695B7A1A467B691B7A19467B69DB7969
:101E500018467B699B791C467B695B7904930394E4
:101E60000290019100922B46744A0221002012F048
:101E700007FEBB69724AA2FB03239909BA69704B3A
:101E8000A3FB02039B094FF47A7000FB03F3D31A00
:101E90006C4AA2FB0323DA087B69B3F80D309BB2CE
:101EA0001C467B69B3F80F309BB2184603469B0073
:101EB00003445B0018467B691B78039302900194EE
:101EC00000920B46604A0221002012F0D9FD524BCD
:101ED0001B7E012B03D1504B03221A7602E04E4B9E
:101EE00002221A767B69B3F801309AB24A4BDA8043
:101EF0004A4B00221A704A4B00221A70494B0022AA
:101F00001A70494B00221A70484B00221A70484B35
:101F100000221A707B69B3F801309AB23F4B5A80A5
:101F20007B69B3F801309AB23D4B5A807B69B3F8B4
:101F300001309AB23B4B5A807B69B3F801309AB2B8
:101F4000394B5A807B69B3F801309AB2374B5A80CB
:101F50007B69B3F801309AB2354B5A802F480BF0A9
:101F600081FF2F480AF082FB2E4807F04FFF2E48D2
:101F70000CF0F6FE2D4804F041FD2D4801F0ECFF79
:101F80002C481FF0CDF900E000BF1EE13B6D02338D
:101F9000FB64FB6C1B889BB2B3F5006F2ED0B3F5CE
:101FA000006F00F30F8140F20A42934200F30A816E
:101FB000B3F5806F05DC042B4AD0062B00F0F280CD
:101FC00000E1A3F20143092B00F2FC8001A252F8C8
:101FD00023F000BF1F2100086D200008C521000864
:101FE000C521000867210008C52100080520000858
:101FF000C5210008B120000861200008FB6C0233F5
:10200000BB64E0E0FB6C02333B64104A0221002019
:1020100012F036FDD7E000BF2C1A00207C1A0020F9
:10202000801A0020841A0020881A00208C1A0020B0
:10203000901A0020481A0020640704088C0604083F
:10204000D34D6210CDCCCCCCD0060408B007040828
:10205000012015F021FC05215E481FF037F9B2E0A0
:102060005D4A0221002012F00BFDACE05B4A022128
:10207000002012F005FD5A4BFB635A4BDB88F96BCD
:1020800018460DF048F9034687F8573097F857304F
:10209000002B07D097F85730534A0221002012F046
:1020A000EFFC90E0514A0221002012F0E9FC8AE0A6
:1020B0004F4A0221002012F0E3FCFB6C0233D3F8FC
:1020C00002304C4A0221002012F0DAFCFB6C023391
:1020D000D3F80230484A0221002012F0D1FC01233B
:1020E00087F847303F4BDB8897F847201146184662
:1020F0000DF0B8F9034687F8573097F85730002BA2
:1021000007D097F857303D4A0221002012F0B8FC62
:1021100059E03B4A0221002012F0B2FC53E0394A58
:102120000221002012F0ACFCFB6C0233BB63BB6BE2
:102130009B78002B0CD0BB6B9B781A46BB6BDB7873
:1021400000931346304A0221002012F099FC04E06B
:102150002E4A0221002012F093FC2D4A0221002079
:1021600012F08EFC2FE02B4A0221002012F088FC96
:102170001C4BDB8818460DF05BF9034687F8573097
:1021800097F85730002B07D097F85730224A022192
:10219000002012F075FC16E0204A0221002012F007
:1021A0006FFC10E0FB6C02337B631D4A02210020B0
:1021B00012F066FC7B6B1B781A4A0221002012F099
:1021C0005FFC00E000BF00E000BF01231846583765
:1021D000BD46B0BD601A0020D807040808080408EE
:1021E00007B201002C1A0020300804086408040813
:1021F0008C080408C0080408DC080408F408040873
:102200004009040880090408AC090408EC09040822
:10221000F0030408040A0408240A0408580A0408FD
:10222000800A0408A40A040890B595B008AF0346D4
:10223000FB710023FB620023BB6200237B6200234F
:102240003B62FB79062B60D801A252F823F000BF55
:10225000912200086D220008A72200087F220008B2
:10226000BD2200080B230008C32200088023FB6264
:10227000A023BB6204237B6200233B6246E08023F1
:10228000FB62A023BB6206237B6203233B623DE02B
:102290004FF4C863FB624FF47A63BB6205237B6231
:1022A00000233B6232E04FF4C863FB624FF47A6371
:1022B000BB6207237B6203233B6227E000237B6230
:1022C00024E04FF44873FB624FF44873BB62002371
:1022D0007B624FF4FA733B62724B93F84C30002BE5
:1022E00008D0704B002283F84C202823FB6228235F
:1022F000BB620BE06B4B012283F84C204FF4487318
:10230000FB624FF44873BB6200E000BFFB79062B11
:1023100000F2C38001A252F823F000BF3923000865
:10232000392300083923000839230008E323000873
:10233000252400085B2400083B6AD8B2FB6A99B2E6
:10234000BB6A9AB2002306930023059300230493EB
:10235000002303930023029300230193002300939F
:1023600000230CF051FF0346FB77FB7F002B06D0C8
:10237000FB7F4D4A0221002012F082FB08E07B6ABD
:10238000DAB2484B1A76494A0221002012F078FB53
:102390000A200DF01DF80346FB77FB7F002B05D0CC
:1023A000FB7F434A0221002012F06AFB414B3B6154
:1023B0001923FB73FB7B396918460CF0EDFF0346CC
:1023C000FB77FB7F002B06D0FB7F3B4A02210020DE
:1023D00012F056FB62E0394A0221002012F050FB55
:1023E0005CE00CF0FBFE0346FB77FB7F002B06D086
:1023F000FB7F334A0221002012F042FB4EE0314ABB
:102400000221002012F03CFB264BDB884FF6FF72C6
:10241000934203D0234B02221A763FE0214B002245
:102420001A763BE0234BBB611923FB75FB7DB96931
:1024300018460CF0B1FF0346FB77FB7F002B06D05C
:10244000FB7F214A0221002012F01AFB26E01F4ADE
:102450000221002012F014FB20E0124BD888FB6A06
:1024600099B2BB6A9AB27B6A9CB23B6A9BB20093F8
:1024700023460DF0E3F80346FB77FB7F002B06D0E5
:10248000FB7F134A0221002012F0FAFA06E0114AFB
:102490000221002012F0F4FA00E000BF00BF343740
:1024A000BD4690BD2C1A00201C0C0408540C0408D6
:1024B000800C04083C000020B40C0408E40C040860
:1024C000080D0408400D0408700D0408A00D040850
:1024D000C80D04080C0E040880B500AF02490020A6
:1024E00010F068FD00BF80BDC130000880B582B02B
:1024F00000AF264B44221A83244B08225A83234BD5
:102500004FF4A8629A83214B1E22DA771F4BFB22DD
:102510009A841E4B402283F828201C4BF822DA8430
:102520001A4B202283F82920184B002283F82220FE
:10253000164B08229A77154BB1221A84134B144A72
:102540001A60124B42F2BC325A60104B114A1A61A7
:102550000E4B4FF48B525A610C4B0F4A9A600B4B47
:10256000FC22DA81094BFB229A81084B00225A8512
:10257000064B0022DA62054834F0D8FE0346FB71B0
:10258000FB7918460837BD4680BD00BFA01A002061
:10259000D01A00208C3E0020F04F0020F0B597B0FC
:1025A00006AF0023FB840023BB8400237B8400232D
:1025B0003B84B44A012134200CF0B8FD034687F86F
:1025C0003F3097F83F30002B07D097F83F30AE4AA6
:1025D0000221002012F054FA04E0AC4A022100204B
:1025E00012F04EFAAA4A0221002012F049FA00F035
:1025F00085FBB863BA6B062100200CF097FD0346FB
:1026000087F83F3097F83F30002B07D097F83F30DE
:10261000A04A0221002012F033FA25E09E4A02214E
:10262000002012F02DFABB6B05331B781D46BB6BE7
:1026300004331B781A46BB6B03331B781946BB6BFC
:1026400002331B781846BB6B01331B781C46BB6BEF
:102650001B78049303940290019100922B468F4AB9
:102660000221002012F00CFA00F0DCFB78637A6B98
:10267000102118200CF05AFD034687F83F3097F8D8
:102680003F30002B07D097F83F30854A02210020C9
:1026900012F0F6F904E0834A0221002012F0F0F96A
:1026A00000F054FC38633A6B102108200CF03EFD1A
:1026B000034687F83F3097F83F30002B07D097F854
:1026C0003F30794A0221002012F0DAF904E0774A1B
:1026D0000221002012F0D4F9192101200CF045FD4F
:1026E000034687F83F3097F83F30002B07D097F824
:1026F0003F306F4A0221002012F0C2F904E06D4A17
:102700000221002012F0BCF90CF0CBFE034687F842
:102710003F3097F83F30002B07D097F83F30664A9C
:102720000221002012F0ACF904E0644A02210020EA
:1027300012F0A6F9002387F82F3097F82F3043F0D6
:10274000010387F82F3097F82F30002B65D007F161
:10275000260297F82F0007F12203019307F12403C3
:1027600000931346132200210CF0F1FD034687F875
:102770003F3097F83F30002B07D097F83F30504A52
:102780000221002012F07CF90DE0FA8C4D4B1A80EA
:10279000BA8C4C4B5A807A8C4A4B9A804A4A022116
:1027A000002012F06DF9F88CB98C484B009313237C
:1027B00000220CF0E6FE034687F83F3097F83F30E2
:1027C000002B07D097F83F30414A0221002012F039
:1027D00057F904E03F4A0221002012F051F9F88C29
:1027E000798C07F120030093022300220CF0C9FE2C
:1027F000034687F83F3097F83F30002B07D097F813
:102800003F30354A0221002012F03AF90AE0334AFB
:102810000221002012F034F904E0314A02210120A3
:1028200012F02EF90222022100200CF05FFC034678
:1028300087F83F3097F83F30002B07D097F83F30AC
:10284000284A0221002012F01BF904E0264A022146
:10285000002012F015F91B4B01221A72194B1B7A3A
:1028600018460CF009FD034687F83F3097F83F30D3
:10287000002B3DD097F83F301C4A0221002012F077
:10288000FFF83AE020C70408B00E0408140F04084B
:10289000680F0408940F0408F00F04083C100408A3
:1028A00078100408D01004081811040870110408E6
:1028B000B8110408F8110408281204085C1204086E
:1028C000801204082C1A0020B412040828000020EA
:1028D000D812040820130408581304089C13040891
:1028E000D0130408EC130408281404085414040832
:1028F000544A0221002012F0C3F8534B01225A72AD
:10290000514B08221A73504B10225A734E4B00221F
:10291000DA724D4B4D4A1A614B4B01229A72BA6BD7
:1029200019214B4800F068FC474B9C7A464B5D7A76
:10293000454B1B7B444A527B4349C97A4248006954
:102940000026049603900291019200930023012235
:10295000294620460CF0AAFC034687F83F3097F83A
:102960003F30002B07D097F83F303A4A0221002031
:1029700012F086F804E0384A0221002012F080F8B4
:10298000314B9B7A002B15D00CF03CFD034687F8A9
:102990003F3097F83F30002B07D097F83F302F4A51
:1029A0000221002012F06CF804E02D4A02210020E0
:1029B00012F066F80023FB811623BB85BC233B7411
:1029C0008A237B74BF23BB744523FB74CA233B75E6
:1029D00005237B755023BB75BA23FB7540233B76DB
:1029E00042237B76B023BB760023FB7600233B7724
:1029F00000237B776423BB77F323FB77F88CB98DB7
:102A000007F1100207F10E0305930023049310232E
:102A100003930023029300230193022300930B46A8
:102A200002210CF07AFD034687F83F3097F83F30DB
:102A3000002B19D097F83F300A4A0221002012F0EB
:102A40001FF816E0941404082C1A002007B20100A5
:102A50003C000020C4140408101504084C15040898
:102A60008C150408BC1504087B4A0221002012F0D2
:102A700007F87A4BBB627A4A0221002012F000F874
:102A8000FEF7B0FE0346DAB2744B1A70FEF7AAFEE8
:102A900003461B0ADAB2714B5A70704B5B781A46C8
:102AA0006E4B1B78009313466E4A0221002011F0F2
:102AB000E7FFFEF7A5FE0346DAB2684B9A70FEF711
:102AC0009FFE03461B0ADAB2644BDA70634BDB7875
:102AD0001A46624B9B7800931346634A02210020FA
:102AE00011F0CEFF5D4B8B221A715C4B1B795F4A54
:102AF0000221002011F0C4FFFEF7D8FE0346DAB22F
:102B0000564B5A71554B5B79594A0221002011F0FE
:102B1000B7FF524B01229A71504B0722DA714F4B8B
:102B200000221A724D4B00225A724C4B00229A72AC
:102B30004A4B9B791C46494BDB791A46474B1B7A1B
:102B40001946464B5B7A1846444B9B7A0393029096
:102B5000019100922346474A0221002011F090FF84
:102B60003E4B8322DA723D4BDB7A434A022100203E
:102B700011F086FF00237B7300237B8100237B728F
:102B80000023FB800023BB80BC1D07F1090207F175
:102B90000A0107F10D003B1D009323460CF086FA55
:102BA0007B89DAB22D4B1A732C4B1B7B334A0221E3
:102BB000002011F065FF7B891B0A9BB2DAB2274B1C
:102BC0005A73264B5B7B2E4A0221002011F058FFDE
:102BD000224BFF229A73214BFF22DA731F4BFF22F5
:102BE0001A741E4BFF225A741C4BFF229A741B4B03
:102BF000FF22DA74194BFF221A75184BFF225A75FF
:102C0000174A0221002011F03BFFF88CF989BB8D97
:102C1000DAB2BB6A0093134600220CF0B2FC034602
:102C200087F83F3097F83F30002B07D097F83F30B8
:102C3000144A0221002011F023FF04E0124A02216D
:102C4000002011F01DFF114A0221002011F018FF91
:102C500000BF4437BD46F0BD08160408D057002019
:102C60004416040874160408A4160408D8160408A8
:102C7000041704083017040878170408A817040874
:102C8000DC1704080C1804085818040890180408E5
:102C900080B582B000AF00233B603B461946164822
:102CA00014F0A9FC3B68083318461DF0F9FB0346F5
:102CB000FB71FB79002B04D03B68184612F0E2F957
:102CC00004E03B6819460C4814F028FC0A4814F04C
:102CD00003FC0346002B06D1FB79002B03D0002117
:102CE00004201EF0BBF9002110201EF0B7F900BF30
:102CF0000837BD4680BD00BFFC19002080B58AB0F2
:102D000000AF00237B61454A07F10C0392E8030002
:102D10001860043319803B1D0622002118463CF040
:102D2000BDFE3F4B00221A703D4B00225A703C4BB7
:102D300000229A703A4B0022DA70394B00221A7145
:102D4000374B00225A713B1D0622194634483CF08D
:102D500095FE0346002B02D0314B7B6258E0FEF714
:102D60005DFD38623B6AB3F1FF3F23D0FEF76EFD95
:102D7000F861FEF75FFDB8613B6ADAB2284B1A7062
:102D80003B6A1B0ADAB2264B5A70BB69DAB2244B93
:102D90009A70FB69DAB2224BDA70FB691B0ADAB26D
:102DA0001F4B1A71FB691B0CDAB21D4B5A711C4B7D
:102DB0007B622DE007F114031946002013F072FC2A
:102DC0000346002B1AD17B691A7A154B1A707B695E
:102DD0005A7A134B5A707B699A7A114B9A707B69B5
:102DE000DA7A0F4BDA707B691A7B0D4B1A717B69AB
:102DF0005A7B0B4B5A710A4B7B6209E0084B07F177
:102E00000C0292E80300186004331980044B7B62C3
:102E10007B6A18462837BD4680BD00BFBC18040831
:102E2000041A002090B591B000AF454B07F114048F
:102E30000FCB84E80F00434B3C1D0FCB84E80F0001
:102E400007F124031022002118463CF027FE3E4BD8
:102E50001C4607F114030FCB84E80F0007F124038D
:102E60001022194638483CF009FE0346002B02D0D8
:102E7000354BFB635EE0FEF7F5FCB863FEF7FEFC46
:102E80007863BB6BB3F1FF3F4CD07B6BB3F1FF3F7B
:102E900048D0BB6BDAB22C4B1A722B4B1A7A2A4BE6
:102EA0001A70BB6B1B0ADAB2274B5A72264B5A7A3E
:102EB000254B5A70BB6B1B0CDAB2234B9A72224B18
:102EC0009A7A214B9A70BB6B1B0EDAB21E4BDA72E8
:102ED0001D4BDA7A1C4BDA707B6BDAB21A4B1A7321
:102EE000194B1A7B184B1A717B6B1B0ADAB2164B03
:102EF0005A73154B5A7B144B5A717B6B1B0CDAB20D
:102F0000114B9A73104B9A7B0F4B9A717B6B1B0E74
:102F1000DAB20D4BDA730C4BDA7B0B4BDA710A4BDE
:102F2000FB6307E0084B1C463B1D0FCB84E80F00FA
:102F3000054BFB63FB6B18464437BD4690BD00BF95
:102F4000C4180408D41804080C1A002090B591B0D5
:102F500000AF494B07F114040FCB84E80F00474B37
:102F60003C1D0FCB84E80F0007F124031022002141
:102F700018463CF093FD424B1C4607F114030FCB5F
:102F800084E80F0007F12403102219463C483CF066
:102F900075FD0346002B02D0394BFB6366E0FEF75C
:102FA0006DFCB863FEF776FC7863BB6BB3F1FF3F53
:102FB00054D07B6BB3F1FF3F50D07B6BDAB2304B18
:102FC0001A722F4B1A7A2E4B1A707B6B1B0ADAB2CD
:102FD0002B4B5A722A4B5A7A294B5A707B6B1B0C1B
:102FE000DAB2274B9A72264B9A7A254B9A707B6BF2
:102FF0001B0EDAB2224BDA72214BDA7A204BDA70EE
:10300000BB6BDBB2DB43DAB21D4B1A731C4B1A7B72
:103010001B4B1A71BB6B1B0ADBB2DB43DAB2184BDA
:103020005A73174B5A7B164B5A71BB6B1B0CDBB296
:10303000DB43DAB2124B9A73114B9A7B104B9A71A5
:10304000BB6B1B0EDBB2DB43DAB20D4BDA730C4BFE
:10305000DA7B0B4BDA710A4BFB6307E0084B1C462B
:103060003B1D0FCB84E80F00054BFB63FB6B184641
:103070004437BD4690BD00BFC4180408E4180408D6
:103080001C1A002080B500AF34F0C6F90346002BAF
:1030900001D10CF0AFFC00BF80BD80B500AF0120B6
:1030A0001EF008F800BF80BD80B582B000AF0F23CE
:1030B0003B71387922F005FD00BF0837BD4680BD61
:1030C00080B582B000AF0346FB71FB79002B03D0C3
:1030D000034900200FF06EFF00BF0837BD4680BDDA
:1030E000C130000880B582B000AF786000214FF495
:1030F00000701DF0B3FF00BF0837BD4680BD80B52E
:1031000082B000AF7860012014F0E0FB00BF083708
:10311000BD4680BD80B500AF012014F0D7FB042070
:10312000FFF782F800BF80BD80B586B000AFF860C1
:103130007A601A460B467B8113463B819123FB75CF
:1031400000233B617A893B891344BB82FB681B786F
:10315000042B3DD1244B254A9A60BB8A0B33990836
:1031600007F11002204B022011F04AFE0346002B0B
:1031700007D01F4A0221002011F082FC9123FB7529
:103180002CE03B69002B29D03B6904221A72FB68B2
:103190005A1C3B6912785A72FB689A1C3B69127878
:1031A0009A723B6903F10B00FB68D91CFB68023380
:1031B0001B781A4631F0AEFB3B6919460D4814F0F6
:1031C000D3F9002104201DF049FF0023FB7505E021
:1031D000FB681B78022B01D10023FB75FB7D184691
:1031E0001837BD4680BD00BF941A0020A9300008E2
:1031F000F4180408FC19002080B487B000AFF86010
:103200000B467A60FB720023FB82DFE0FB8AFA68E0
:1032100013441B787B75FB8A0133FA6813441B78CF
:103220003B75FA8A7B7D1A44FB7A9A4280F2D580FC
:103230003B7DFF2B5CD0FF2B00F3BA800A2B00F004
:10324000B9800A2B00F3B480012B00F0B580092B64
:1032500000D0ADE0FA8A7B7D13441A46FB68134424
:103260001B78582B40F0AA80FA8A7B7D1344013BDF
:10327000FA6813441B78582B40F0A0807B681B78B9
:103280001B09FB747B681B7803F00F03BB74FB7C8A
:10329000092B0AD9FA8A7B7D1344013BFA6813444F
:1032A000FA7C3732D2B21A7009E0FA8A7B7D134475
:1032B000013BFA681344FA7C3032D2B21A70BB7CFC
:1032C000092B0AD9FA8A7B7D13441A46FB681344FA
:1032D000BA7C3732D2B21A7070E0FA8A7B7D13441E
:1032E0001A46FB681344BA7C3032D2B21A7065E0D9
:1032F000FB8A0233FA68134430221A70FB8A0333C4
:10330000FA68134400221A70FB8A0433FA681344E3
:1033100002221A70FB8A0533FA6813448B221A7052
:10332000FB8A0633FA68134483221A70FB8A073338
:10333000FA68134400221A70FB8A0833FA681344AF
:1033400000221A70FB8A0933FA68134400221A70AB
:103350007B685A1DFB8A0A33F9680B4412781A708D
:103360007B681A1DFB8A0B33F9680B4412781A70BC
:103370007B68DA1CFB8A0C33F9680B4412781A70EC
:103380007B689A1CFB8A0D33F9680B4412781A701B
:103390007B685A1CFB8A0E33F9680B4412781A704A
:1033A000FB8A0F33FA6813447A6812781A7006E0C1
:1033B00000BF04E000BF02E000BF00E000BF7B7D73
:1033C0009AB2FB8A13449BB20133FB82FB7A9BB215
:1033D000FA8A9A42FFF41AAF00E000BF00BF1C3720
:1033E000BD465DF8047B704780B483B000AF0346F0
:1033F000FB80FA8807491346DB0013449B000B440B
:103400001C3301221A7000BF0C37BD465DF8047BE7
:10341000704700BF5800002080B500AF002014F0B6
:10342000D5F9012014F0D2F9022014F0CFF900BF31
:1034300080BD80B400AF00BFBD465DF8047B70471F
:1034400080B584B002AF0121002014F059FA0121A7
:10345000012014F055FA0121022014F051FAFFF76F
:10346000E8FF0023FB7117E0FA791346DB001344F1
:103470009B000D4A1344181DFA791346DB001344D0
:103480009B00094A13440093084B012200211DF0C0
:1034900079FEFB790133FB71FB79022BE4D900BF84
:1034A00000BF0837BD4680BD58000020C934000861
:1034B00080B483B000AF0346FB7100BF00BF0C3780
:1034C000BD465DF8047B704780B584B000AF78607E
:1034D0007B68FB600023BB60FB681B78184614F018
:1034E000E1FAB860FB681B6A03F13202FB681A62FA
:1034F000BB68002B04D0FB681B6AB3F5FA7F12D3BC
:10350000BB68002B04D0FB681B781846FFF76CFFE4
:10351000FB68043318461DF003FFFB681B78184650
:10352000FFF7C6FF00E000BF1037BD4680BD0000BA
:1035300080B582B000AF0346FB71FA790C4913469F
:10354000DB0013449B000B44203300221A60FA79FD
:103550001346DB0013449B00054A13440433322115
:1035600018461DF0B3FE00BF0837BD4680BD00BF42
:103570005800002080B584B000AF78600B467B8097
:103580000023FB734FF6FF73BB8142497868FCF759
:1035900007FE0346002B06D03F497868FCF700FE83
:1035A0000346002B02D10023BB815CE03B497868D5
:1035B000FCF7F6FD0346002B06D039497868FCF786
:1035C000EFFD0346002B05D10020FFF70DFF002380
:1035D000BB8148E033497868FCF7E2FD0346002BE5
:1035E00006D031497868FCF7DBFD0346002B02D199
:1035F0000123BB8137E02D497868FCF7D1FD0346F4
:10360000002B06D02A497868FCF7CAFD0346002B38
:1036100005D10120FFF7E8FE0123BB8123E0254906
:103620007868FCF7BDFD0346002B06D02249786878
:10363000FCF7B6FD0346002B02D10223BB8112E04A
:103640001E497868FCF7ACFD0346002B06D01C49E8
:103650007868FCF7A5FD0346002B04D10220FFF794
:10366000C3FE0223BB81BB894FF6FF7293420CD08D
:103670007B68144A0221002011F002FABB89DBB2F8
:103680001846FFF715FF0123FB73FB7B1846103725
:10369000BD4680BD04190408081904080C19040863
:1036A00010190408181904081C1904082019040822
:1036B000241904082C1904083019040834190408C2
:1036C000381904084019040880B58EB000AF78603E
:1036D000002387F837307B6801333B633B6B1B78F3
:1036E000FF2B40F053813B6B0233FB62FB6A1B886C
:1036F0009BB2A3F60143152B00F2428101A252F8BE
:1037000023F000BF5D3700088139000879390008CF
:1037100081390008813900088139000881390008A1
:103720008139000881390008813900088139000891
:103730008139000881390008813900088139000881
:103740008139000881390008813900088139000871
:103750009B3800088139000871390008FB6A023380
:10376000FB61FB691B889BB2BB82FB695B889BB2D8
:10377000FB82FB69DB889BB2DBB23B74FB690833DD
:10378000FB60FB695B889BB21A46844B9B880233C3
:103790009A4219D1012387F83730FB691B7A002B35
:1037A00002D0012B08D077E004233B7207F1080315
:1037B000184600F027FB6FE003233B7207F1080374
:1037C000184600F01FFB67E0FB695B889BB21A4656
:1037D000724BDB8802339A4219D1012387F83730C4
:1037E000FB691B7A002B02D0012B08D054E0072381
:1037F0003B7207F10803184600F004FB4CE0062377
:103800003B7207F10803184600F0FCFA44E0FB693C
:103810005B889BB21A46614B1B8902339A4219D1CD
:10382000012387F83730FB691B7A002B02D0012B6C
:1038300008D031E00A233B7207F10803184600F074
:10384000E1FA29E009233B7207F10803184600F06A
:10385000D9FA21E0FB695B889BB21A464F4B5B8823
:1038600001339A4240F08E80012387F837300123DC
:103870003B724B4A0221002011F002F9FB69DB8800
:103880009BB2DBB23B74FB690833FB6007F10803B2
:10389000184600F0B7FA75E074E0FB6A02337B6209
:1038A0007B6A5B889BB21A463C4B5B8801339A4229
:1038B00010D1012387F837307B6A1B889BB21846EA
:1038C0000BF0A2FE00233B7207F10803184600F03C
:1038D00099FA59E07B6A5B889BB21A462F4B9B880A
:1038E00001339A4210D1012387F837307B6A1B8855
:1038F0009BB218460BF088FE02233B7207F10803C7
:10390000184600F07FFA3FE07B6A5B889BB21A465C
:10391000224BDB8801339A4210D1012387F83730DC
:103920007B6A1B889BB218460BF06EFE05233B7228
:1039300007F10803184600F065FA25E07B6A5B880A
:103940009BB21A46154B1B8901339A421CD10123A5
:1039500087F837307B6A1B889BB218460BF054FE01
:1039600008233B7207F10803184600F04BFA0BE0FE
:10397000FB6A0233BB6208E0FB6A02333B6204E08D
:1039800000BF04E000BF02E000BF00E000BF97F806
:10399000373018463837BD4680BD00BFE857002095
:1039A0006019040880B58CB006AFB0481CF05EFD0D
:1039B0000C23FB75BC233B718A237B71BF23BB7136
:1039C0004523FB71CA233B7205237B725023BB72D4
:1039D000BA23FB7240233B7342237B73B023BB7338
:1039E0000023FB7300233B7405237B746423BB74A7
:1039F000F323FB74FB7D391D9D4A009201220220B6
:103A00000BF065FD0346BB75BB7D002B06D0BB7D6F
:103A1000984A0221002011F033F806E0944B1B88ED
:103A2000954A0221002011F02BF8BC233B718A2318
:103A30007B71BF23BB714523FB71CA233B720523F6
:103A40007B725023BB72BA23FB7240233B73422329
:103A50007B73B023BB730023FB7301233B740523EB
:103A60007B746423BB74F323FB74814B188801219E
:103A70003A1D824B059301230493102303930523DE
:103A80000293002301930A2300930B4602210BF0BB
:103A900044FD0346BB75BB7D002B06D0BB7D784A39
:103AA0000221002010F0ECFF06E0714B5B88754AA4
:103AB0000221002010F0E4FFBC233B718A237B71BC
:103AC000BF23BB714523FB71CA233B7205237B7265
:103AD0005023BB72BA23FB7240233B7342237B7398
:103AE000B023BB730023FB7302233B7405237B7459
:103AF0006423BB74F323FB745D4B188801213A1DCA
:103B0000614B059301230493102303930523029330
:103B100000230193122300930B4602210BF0FDFCBE
:103B20000346BB75BB7D002B06D0BB7D574A0221E7
:103B3000002010F0A5FF06E04D4B9B88544A02215F
:103B4000002010F09DFFBC233B718A237B71BF23B3
:103B5000BB714523FB71CA233B7205237B72502343
:103B6000BB72BA23FB7240233B7342237B73B023A7
:103B7000BB730023FB7303233B7405237B74642313
:103B8000BB74F323FB743A4B188801213A1D414B57
:103B90000593012304931023039305230293002329
:103BA0000193122300930B4602210BF0B6FC03464F
:103BB000BB75BB7D002B06D0BB7D374A02210020A0
:103BC00010F05EFF06E02A4BDB88344A0221002019
:103BD00010F056FFBC233B718A237B71BF23BB715E
:103BE0004523FB71CA233B7205237B725023BB72B2
:103BF000BA23FB7240233B7342237B73B023BB7316
:103C00000023FB7304233B7405237B746423BB7480
:103C1000F323FB74164B188801213A1D204B0593A2
:103C2000012304931023039305230293002301939C
:103C3000122300930B4602210BF06FFC0346BB7569
:103C4000BB7D002B06D0BB7D164A0221002010F060
:103C500017FF07E0064B1B89134A0221002010F0D2
:103C60000FFF00BF1837BD4680BD00BFC936000832
:103C7000E857002094190408D8190408EA570020CE
:103C8000181A0408641A0408EC570020B01A040833
:103C9000001B0408EE5700204C1B04089C1B040862
:103CA000F0570020EC1B04083C1C040880B586B0CB
:103CB00002AF03463960FB719223FB73FB79032B40
:103CC00000F2888001A252F823F000BFDD3C00081A
:103CD0001B3D0008593D0008973D0008404B1888DF
:103CE0003F4B59883B681A793B681B680093134621
:103CF00000220BF046FC0346FB73FB7B002B06D037
:103D0000FB7B384A0221032010F0BAFE63E0364AFA
:103D10000221032010F0B4FE5DE0314B1888304BD7
:103D200099883B681A793B681B6800931346002208
:103D30000BF027FC0346FB73FB7B002B06D0FB7BC1
:103D40002A4A0221032010F09BFE44E0284A022167
:103D5000032010F095FE3EE0214B1888204BD988B7
:103D60003B681A793B681B680093134600220BF0EE
:103D700008FC0346FB73FB7B002B06D0FB7B1D4A34
:103D80000221032010F07CFE25E01B4A02210320C3
:103D900010F076FE1FE0124B1888114B19893B6812
:103DA0001A793B681B680093134600220BF0E9FB6D
:103DB0000346FB73FB7B002B06D0FB7B0F4A0221E3
:103DC000032010F05DFE06E00D4A0221032010F0F2
:103DD00057FE00E000BFFB7B18461037BD4680BD94
:103DE000E85700208C1C0408DC1C04081C1D040877
:103DF000701D0408B01D0408081E04084C1E0408A9
:103E0000A01E040880B582B000AF78607B681B7884
:103E10000A2B7FD801A252F823F000BF493E0008C8
:103E2000593E0008793E0008893E00089B3E000884
:103E3000AD3E0008BD3E0008CF3E0008E13E000850
:103E4000F13E0008033F0008354A0221002010F02F
:103E500017FE00F04BF95EE07B685B681A78314B27
:103E60001A70304B1B78304A0221002010F008FEF7
:103E70002E4B01221A704EE02D4A0221002010F034
:103E8000FFFD00F059F946E02A4B01221A702A4A38
:103E90000221002010F0F4FD3DE0264B00221A70B4
:103EA000264A0221002010F0EBFD34E0244A0221D2
:103EB000002010F0E5FD00F065F92CE01D4B032219
:103EC0005A70204A0221002010F0DAFD23E0194B3D
:103ED00002225A701C4A0221002010F0D1FD1AE083
:103EE0001A4A0221002010F0CBFD00F071F912E017
:103EF000104B05229A70164A0221002010F0C0FDD6
:103F000009E00C4B04229A70124A0221002010F0A2
:103F1000B7FD00E000BF00BF0837BD4680BD00BF51
:103F2000E41E0408F3580020001F0408F65800207F
:103F3000201F0408F45700203C1F0408641F0408D5
:103F40008C1F0408AC1F0408D81F040804200408B0
:103F5000242004085020040880B582B000AF7860A7
:103F60007B681B78002B05D0012B00D003E000F00C
:103F7000B5F800E000BF00BF0837BD4680BD0000B7
:103F800080B500AFFFF70EFD0F4A00214FF08060B3
:103F90001DF042F80D4A00214FF000601DF03CF882
:103FA0000A4A00214FF080501DF036F8084B0022DD
:103FB0001A70074B02225A70054B04229A7000F0C7
:103FC0008DF800BF80BD00BFD53F000859400008F4
:103FD000F457002080B584B000AF0023FB73184B6A
:103FE0007B6000233B72174B1A78154B1A70144BE9
:103FF0001B78154A0221002010F042FD3B7A013364
:10400000DBB23B72114B1B78012B07D1104A022106
:10401000002010F035FD0523FB7304E00D4A02215A
:10402000002010F02DFDFB7B002B05D03B1D194619
:104030000120FFF73BFE00BF00BF1037BD4680BD2B
:10404000FC570020F45800207C200408F45700207E
:10405000A8200408D420040880B584B000AF02234F
:10406000FB73184B7B6000233B72174B1A78154B80
:104070001A70144B1B78154A0221002010F000FD25
:104080003B7A0133DBB23B72114B5B78032B07D1D8
:10409000104A0221002010F0F3FC0323FB7304E01C
:1040A0000D4A0221002010F0EBFCFB7B022B05D017
:1040B0003B1D19460220FFF7F9FD00BF00BF103776
:1040C000BD4680BDFC570020C40000201821040814
:1040D000F4570020442104087421040880B400AF80
:1040E00000BFBD465DF8047B7047000080B582B01C
:1040F00000AF0E4B3B6000233B710D4B1A780B4B0E
:104100001A700A4B1B780B4A0221002010F0B8FCF1
:104110003B790133DBB23B713B4619460020FFF788
:10412000C5FD00BF0837BD4680BD00BFFC5700205D
:10413000F35800205C22040880B582B000AF0E4B1B
:104140003B6000233B710D4B1A780B4B1A700A4BE6
:104150001B780B4A0221002010F092FC3B790133BE
:10416000DBB23B713B4619460120FFF79FFD00BFC4
:104170000837BD4680BD00BFFC570020F458002022
:104180008822040880B582B000AF0E4B3B6000234C
:104190003B710D4B1A780B4B1A700A4B1B780B4A6C
:1041A0000221002010F06CFC3B790133DBB23B7143
:1041B0003B4619460220FFF779FD00BF0837BD4690
:1041C00080BD00BFFC570020C4000020B4220408BA
:1041D00080B582B000AF0E4B3B6000233B710D4BAE
:1041E0001A780B4B1A700A4B1B780B4A02210020DD
:1041F00010F046FC3B790133DBB23B713B4619467C
:104200000320FFF753FD00BF0837BD4680BD00BF48
:10421000FC570020F5580020E422040880B58EB039
:1042200000AF7860002387F837307B6801333B6349
:104230003B6B1B78FF2B40F01B863B6B0233FB6212
:10424000FB6A1B889BB2A3F60143152B00F20A867A
:1042500001A252F823F000BFB1420008654E0008E9
:104260005D4E0008654E0008654E0008654E00086A
:10427000654E0008654E0008654E0008654E000852
:10428000654E0008654E0008654E0008654E000842
:10429000654E0008654E0008654E0008654E000832
:1042A000654E0008E9490008654E0008554E0008B3
:1042B000FB6A0233FB61FB691B889BB2BB82FB6913
:1042C0005B889BB2FB82FB69DB889BB2DBB23B74F1
:1042D000FB690833FB60FB695B889BB21A46AD4BF8
:1042E0005B8802339A4219D1012387F83730FB6982
:1042F0001B7A002B02D0012B08D074E302233B72FF
:1043000007F10803184601F08FFF6CE301233B72AD
:1043100007F10803184601F087FF64E3FB695B8837
:104320009BB21A469B4B9B8802339A4219D10123B8
:1043300087F83730FB691B7A002B02D0012B08D09D
:1043400051E305233B7207F10803184601F06CFFA7
:1043500049E304233B7207F10803184601F064FFA8
:1043600041E3FB695B889BB21A468A4BDB880233C8
:104370009A4219D1012387F83730FB691B7A002B49
:1043800002D0012B08D02EE308233B7207F108036B
:10439000184601F049FF26E307233B7207F10803A3
:1043A000184601F041FF1EE3FB695B889BB21A4689
:1043B000784B1B8902339A4219D1012387F8373091
:1043C000FB691B7A002B02D0012B08D00BE30B23D7
:1043D0003B7207F10803184601F026FF03E30A23A6
:1043E0003B7207F10803184601F01EFFFBE2FB6970
:1043F0005B889BB21A46674B5B8902339A4219D19C
:10440000012387F83730FB691B7A002B02D0012B80
:1044100008D0E8E20E233B7207F10803184601F0CA
:1044200003FFE0E20D233B7207F10803184601F099
:10443000FBFED8E2FB695B889BB21A46554B9B8911
:1044400002339A4219D1012387F83730FB691B7A6E
:10445000002B02D0012B08D0C5E211233B7207F1DB
:104460000803184601F0E0FEBDE210233B7207F19D
:104470000803184601F0D8FEB5E2FB695B889BB2E1
:104480001A46444BDB8902339A4219D1012387F83B
:104490003730FB691B7A002B02D0012B08D0A2E237
:1044A00014233B7207F10803184601F0BDFE9AE29F
:1044B00013233B7207F10803184601F0B5FE92E2A0
:1044C000FB695B889BB21A46324B1B8A02339A42C5
:1044D00019D1012387F83730FB691B7A002B02D0F2
:1044E000012B08D07FE217233B7207F1080318461F
:1044F00001F09AFE77E216233B7207F10803184693
:1045000001F092FE6FE2FB695B889BB21A46214B79
:104510005B8A02339A4219D1012387F83730FB694D
:104520001B7A002B02D0012B08D05CE21A233B72CD
:1045300007F10803184601F077FE54E219233B7295
:1045400007F10803184601F06FFE4CE2FB695B8837
:104550009BB21A460F4B9B8A02339A421CD101230D
:1045600087F83730FB691B7A002B02D0012B08D06B
:1045700039E21D233B7207F10803184601F054FE8F
:1045800031E21C233B7207F10803184601F04CFE90
:1045900029E200BFF8580020FB695B889BB21A46ED
:1045A000AB4BDB8A02339A4219D1012387F83730AB
:1045B000FB691B7A002B02D0012B08D013E22023C9
:1045C0003B7207F10803184601F02EFE0BE21F2391
:1045D0003B7207F10803184601F026FE03E2FB696F
:1045E0005B889BB21A469A4B1B8B02339A4219D1B5
:1045F000012387F83730FB691B7A002B02D0012B8F
:1046000008D0F0E123233B7207F10803184601F0BC
:104610000BFEE8E122233B7207F10803184601F084
:1046200003FEE0E1FB695B889BB21A46884B5B8B1B
:1046300002339A4219D1012387F83730FB691B7A7C
:10464000002B02D0012B08D0CDE126233B7207F1CD
:104650000803184601F0E8FDC5E125233B7207F188
:104660000803184601F0E0FDBDE1FB695B889BB2E1
:104670001A46774B9B8B02339A4219D1012387F854
:104680003730FB691B7A002B02D0012B08D0AAE13E
:104690002A233B7207F10803184601F0C5FDA2E189
:1046A00029233B7207F10803184601F0BDFD9AE18A
:1046B000FB695B889BB21A46654B1B8C02339A429E
:1046C00019D1012387F83730FB691B7A002B02D000
:1046D000012B08D087E130233B7207F1080318460D
:1046E00001F0A2FD7FE12F233B7207F1080318467A
:1046F00001F09AFD77E1FB695B889BB21A46544B47
:104700005B8C02339A4219D1012387F83730FB6959
:104710001B7A002B02D0012B08D064E134233B72BA
:1047200007F10803184601F07FFD5CE133233B727B
:1047300007F10803184601F077FD54E1FB695B8837
:104740009BB21A46424B9B8C02339A4219D10123E9
:1047500087F83730FB691B7A002B02D0012B08D079
:1047600041E138233B7207F10803184601F05CFD74
:1047700039E137233B7207F10803184601F054FD75
:1047800031E1FB695B889BB21A46314BDB8C02330B
:104790009A4219D1012387F83730FB691B7A002B25
:1047A00002D0012B08D01EE13B233B7207F1080326
:1047B000184601F039FD16E13A233B7207F1080370
:1047C000184601F031FD0EE1FB695B889BB21A4689
:1047D0001F4B1B8D02339A4219D1012387F83730C2
:1047E000FB691B7A002B02D0012B08D0FBE03F2392
:1047F0003B7207F10803184601F016FDF3E03E2373
:104800003B7207F10803184601F00EFDEBE0FB696F
:104810005B889BB21A460E4B9B8B01339A421BD18D
:10482000012387F8373028233B720A4A02210020EF
:1048300010F026F9FB69DB889BB2DBB23B74FB69A5
:104840000833FB6007F10803184601F0EDFC0BE3A9
:10485000F858002014230408FB695B889BB21A46B1
:10486000B14BDB8B01339A4217D1012387F83730E4
:104870002C233B72AD4A0221002010F001F9FB69A4
:10488000DB889BB2DBB23B74FB690833FB6007F14A
:104890000803184601F0C8FCE6E2FB695B889BB29E
:1048A0001A46A14B1B8C01339A4217D1012387F87A
:1048B00037302E233B729E4A0221002010F0E0F890
:1048C000FB69DB889BB2DBB23B74FB690833FB609E
:1048D00007F10803184601F0A7FCC5E2FB695B88F5
:1048E0009BB21A46904B5B8C01339A4217D101233D
:1048F00087F8373032233B728E4A0221002010F0B5
:10490000BFF8FB69DB889BB2DBB23B74FB69083301
:10491000FB6007F10803184601F086FCA4E2FB697E
:104920005B889BB21A46804B9B8C01339A4217D10D
:10493000012387F8373036233B727F4A022100205B
:1049400010F09EF8FB69DB889BB2DBB23B74FB691D
:104950000833FB6007F10803184601F065FC83E2A9
:10496000FB695B889BB21A466F4B1B8D01339A42E1
:1049700017D1012387F837303D233B726F4A02215C
:10498000002010F07DF8FB69DB889BB2DBB23B7442
:10499000FB690833FB6007F10803184601F044FC8B
:1049A00062E2FB695B889BB21A465F4B5B8D013309
:1049B0009A4240F05982012387F8373041233B72F5
:1049C0005F4A0221002010F05BF8FB69DB889BB294
:1049D000DBB23B74FB690833FB6007F10803184640
:1049E00001F022FC40E23FE2FB6A02337B627B6A19
:1049F0005B889BB21A464C4B5B8801339A4210D1BC
:104A0000012387F837307B6A1B889BB218460AF06F
:104A1000FBFD00233B7207F10803184601F004FC7C
:104A200024E27B6A5B889BB21A463F4B9B8801332A
:104A30009A4210D1012387F837307B6A1B889BB2DA
:104A400018460AF0E1FD03233B7207F108031846FC
:104A500001F0EAFB0AE27B6A5B889BB21A46324BA2
:104A6000DB8801339A4210D1012387F837307B6A03
:104A70001B889BB218460AF0C7FD06233B7207F15C
:104A80000803184601F0D0FBF0E17B6A5B889BB21B
:104A90001A46254B1B8901339A4210D1012387F80E
:104AA00037307B6A1B889BB218460AF0ADFD09239C
:104AB0003B7207F10803184601F0B6FBD6E17B6AAA
:104AC0005B889BB21A46184B5B8901339A4210D11E
:104AD000012387F837307B6A1B889BB218460AF09F
:104AE00093FD0C233B7207F10803184601F09CFB71
:104AF000BCE17B6A5B889BB21A460B4B9B890133F6
:104B00009A421FD1012387F837307B6A1B889BB2FA
:104B100018460AF079FD0F233B7207F10803184687
:104B200001F082FBA2E100BFF858002044230408F2
:104B300078230408B0230408E82304081423040895
:104B4000202404087B6A5B889BB21A46B34BDB893E
:104B500001339A4210D1012387F837307B6A1B88D2
:104B60009BB218460AF050FD12233B7207F108036E
:104B7000184601F059FB79E17B6A5B889BB21A46C3
:104B8000A64B1B8A01339A4210D1012387F8373094
:104B90007B6A1B889BB218460AF036FD15233B72D0
:104BA00007F10803184601F03FFB5FE17B6A5B8871
:104BB0009BB21A46994B5B8A01339A4210D101236A
:104BC00087F837307B6A1B889BB218460AF01CFDB9
:104BD00018233B7207F10803184601F025FB45E155
:104BE0007B6A5B889BB21A468C4B9B8A01339A4244
:104BF00010D1012387F837307B6A1B889BB2184697
:104C00000AF002FD1B233B7207F10803184601F06E
:104C10000BFB2BE17B6A5B889BB21A467F4BDB8ADE
:104C200001339A4210D1012387F837307B6A1B8801
:104C30009BB218460AF0E8FC1E233B7207F10803FA
:104C4000184601F0F1FA11E17B6A5B889BB21A46C3
:104C5000724B1B8B01339A4210D1012387F83730F6
:104C60007B6A1B889BB218460AF0CEFC21233B725C
:104C700007F10803184601F0D7FAF7E07B6A5B8872
:104C80009BB21A46654B5B8B01339A4210D10123CC
:104C900087F837307B6A1B889BB218460AF0B4FC51
:104CA00024233B7207F10803184601F0BDFADDE04A
:104CB0007B6A5B889BB21A46584B9B8B01339A42A6
:104CC00010D1012387F837307B6A1B889BB21846C6
:104CD0000AF09AFC27233B7207F10803184601F0FB
:104CE000A3FAC3E07B6A5B889BB21A464B4BDB8B13
:104CF00001339A4210D1012387F837307B6A1B8831
:104D00009BB218460AF080FC2B233B7207F1080384
:104D1000184601F089FAA9E07B6A5B889BB21A46C3
:104D20003E4B1B8C01339A4210D1012387F8373058
:104D30007B6A1B889BB218460AF066FC2D233B72E7
:104D400007F10803184601F06FFA8FE07B6A5B8871
:104D50009BB21A46314B5B8C01339A4210D101232E
:104D600087F837307B6A1B889BB218460AF04CFCE8
:104D700031233B7207F10803184601F055FA75E03C
:104D80007B6A5B889BB21A46244B9B8C01339A4208
:104D900010D1012387F837307B6A1B889BB21846F5
:104DA0000AF032FC35233B7207F10803184601F084
:104DB0003BFA5BE07B6A5B889BB21A46174BDB8C45
:104DC00001339A4210D1012387F837307B6A1B8860
:104DD0009BB218460AF018FC39233B7207F108030E
:104DE000184601F021FA41E07B6A5B889BB21A46C3
:104DF0000A4B1B8D01339A4212D1012387F83730B9
:104E00007B6A1B889BB218460AF0FEFB3C233B7270
:104E100007F10803184601F007FA27E0F8580020C8
:104E20007B6A5B889BB21A46154B5B8D01339A42B5
:104E30001CD1012387F837307B6A1B889BB2184648
:104E40000AF0E2FB40233B7207F10803184601F029
:104E5000EBF90BE0FB6A0233BB6208E0FB6A02334A
:104E60003B6204E000BF04E000BF02E000BF00E0DE
:104E700000BF97F8373018463837BD4680BD00BFB1
:104E8000F858002080B58CB006AFAA481BF0EEFAA7
:104E90003E23FB75BC233B718A237B71BF23BB710F
:104EA0004523FB71CA233B7205237B725023BB72DF
:104EB000BA23FB7240233B7342237B73B023BB7343
:104EC0000023FB7300233B7404237B746423BB74B3
:104ED000F323FB74FB7D391D974A009201220220C7
:104EE0000AF0F5FA0346BB75BB7D002B06D0BB7DEF
:104EF000924A022100200FF0C3FD06E08E4B1B8872
:104F00008F4A022100200FF0BBFDBC233B718A2396
:104F10007B71BF23BB714523FB71CA233B72052301
:104F20007B725023BB72BA23FB7240233B73422334
:104F30007B73B023BB730023FB7301233B740423F7
:104F40007B746423BB74F323FB747B4B18880421AC
:104F50003A1D7C4B059301230493102303930523EF
:104F6000029300230193122300930B4602210AF0BF
:104F7000D4FA0346BB75BB7D002B06D0BB7D724ABD
:104F8000022100200FF07CFD06E06B4B5B886F4A2E
:104F9000022100200FF074FDBC233B718A237B713A
:104FA000BF23BB714523FB71CA233B7205237B7270
:104FB0005023BB72BA23FB7240233B7342237B73A3
:104FC000B023BB730023FB7302233B7404237B7465
:104FD0006423BB74F323FB74574B188804213A1DD8
:104FE0005B4B059301230493102303930523029342
:104FF00000230193122300930B4602210AF08DFA3D
:105000000346BB75BB7D002B06D0BB7D514A0221F8
:1050100000200FF035FD06E0474B9B884E4A0221E9
:1050200000200FF02DFDBC233B718A237B71BF2331
:10503000BB714523FB71CA233B7205237B7250234E
:10504000BB72BA23FB7240233B7342237B73B023B2
:10505000BB730023FB7303233B7404237B7464231F
:10506000BB74F323FB74344B188804213A1D3B4B6B
:105070000593012304931023039305230293002334
:105080000193122300930B4602210AF046FA0346CD
:10509000BB75BB7D002B06D0BB7D314A02210020B1
:1050A0000FF0EEFC06E0244BDB882E4A02210020A4
:1050B0000FF0E6FCBC233B718A237B71BF23BB71DD
:1050C0004523FB71CA233B7205237B725023BB72BD
:1050D000BA23FB7240233B7342237B73B023BB7321
:1050E0000023FB7304233B7404237B746423BB748D
:1050F000F323FB74104B188801213A1D1A4B0593BA
:1051000001230493102303930523029300230193A7
:10511000122300930B4602210AF0FFF90346BB75E8
:10512000BB7D002B24D0BB7D104A022100200FF054
:10513000A7FC24E01D420008F85800205024040871
:1051400090240408FA580020D02404081C250408E0
:10515000FC58002064250408AC250408FE580020F3
:10516000F025040838260408005900207C2604088D
:10517000B14B1B89B14A022100200FF081FCBC23F6
:105180003B718A237B71BF23BB714523FB71CA230B
:105190003B7205237B725023BB72BA23FB72402300
:1051A0003B7342237B73B023BB730023FB73052344
:1051B0003B7404237B746423BB74F323FB749E4B06
:1051C000188801213A1D9E4B059301230493102357
:1051D00003930523029300230193122300930B46AC
:1051E00002210AF09AF90346BB75BB7D002B06D05D
:1051F000BB7D944A022100200FF042FC06E08E4B5A
:105200005B89914A022100200FF03AFCBC233B71DC
:105210008A237B71BF23BB714523FB71CA233B7279
:1052200005237B725023BB72BA23FB7240233B736E
:1052300042237B73B023BB730023FB7306233B74B1
:1052400004237B746423BB74F323FB747A4B1888A8
:1052500002213A1D7D4B05930123049310230393F0
:105260000523029300230193122300930B4602218E
:105270000AF053F90346BB75BB7D002B06D0BB7DFE
:10528000734A022100200FF0FBFB06E06A4B9B896A
:10529000704A022100200FF0F3FBBC233B718A23EC
:1052A0007B71BF23BB714523FB71CA233B7205236E
:1052B0007B725023BB72BA23FB7240233B734223A1
:1052C0007B73B023BB730023FB7307233B7404235E
:1052D0007B746423BB74F323FB74574B188802213F
:1052E0003A1D5D4B0593012304931023039305237B
:1052F000029300230193122300930B4602210AF02C
:105300000CF90346BB75BB7D002B06D0BB7D534A11
:10531000022100200FF0B4FB06E0474BDB89504A26
:10532000022100200FF0ACFBBC233B718A237B7170
:10533000BF23BB714523FB71CA233B7205237B72DC
:105340005023BB72BA23FB7240233B7342237B730F
:10535000B023BB730023FB7308233B7404237B74CB
:105360006423BB74F323FB74334B188802213A1D6A
:105370003C4B0593012304931023039305230293CD
:1053800000230193122300930B4602210AF0C5F873
:105390000346BB75BB7D002B06D0BB7D324A022184
:1053A00000200FF06DFB06E0234B1B8A2F4A0221E1
:1053B00000200FF065FBBC233B718A237B71BF2368
:1053C000BB714523FB71CA233B7205237B725023BB
:1053D000BB72BA23FB7240233B7342237B73B0231F
:1053E000BB730023FB7309233B7404237B74642386
:1053F000BB74F323FB74104B188804213A1D1C4B1B
:1054000005930123049310230393052302930023A0
:105410000193122300930B4602210AF07EF8034603
:10542000BB75BB7D002B27D0BB7D124A022100201B
:105430000FF026FB27E000BFF8580020C82604081C
:1054400002590020102704085C2704080459002092
:10545000A4270408F427040806590020402804085B
:105460008C28040808590020D82804082429040896
:105470000A5900206C290408B14B5B8AB14A022109
:1054800000200FF0FDFABC233B718A237B71BF2300
:10549000BB714523FB71CA233B7205237B725023EA
:1054A000BB72BA23FB7240233B7342237B73B0234E
:1054B000BB730023FB730A233B7404237B746423B4
:1054C000BB74F323FB749E4B188804213A1D9E4B3A
:1054D00005930123049310230393072302930023CE
:1054E0000193122300930B4602210AF016F803469B
:1054F000BB75BB7D002B06D0BB7D944A02210020EA
:105500000FF0BEFA06E08E4B9B8A914A02210020E2
:105510000FF0B6FABC233B718A237B71BF23BB71AA
:105520004523FB71CA233B7205237B725023BB7258
:10553000BA23FB7240233B7342237B73B023BB73BC
:105540000023FB730B233B7404237B746423BB7421
:10555000F323FB747A4B188804213A1D7D4B059385
:105560000123049310230393052302930023019343
:10557000122300930B46022109F0CFFF0346BB75AF
:10558000BB7D002B06D0BB7D734A022100200FF0AB
:1055900077FA06E06A4BDB8A704A022100200FF09E
:1055A0006FFABC233B718A237B71BF23BB714523F8
:1055B000FB71CA233B7205237B725023BB72BA2353
:1055C000FB7240233B7342237B73B023BB730023E6
:1055D000FB730C233B7404237B746423BB74F3239D
:1055E000FB74574B188801213A1D5D4B059301232D
:1055F00004931023039305230293002301931223A2
:1056000000930B46022109F088FF0346BB75BB7D62
:10561000002B06D0BB7D534A022100200FF030FA48
:1056200006E0474B1B8B504A022100200FF028FA5E
:10563000BC233B718A237B71BF23BB714523FB7164
:10564000CA233B7205237B725023BB72BA23FB72C1
:1056500040233B7342237B73B023BB730023FB7354
:105660000D233B7404237B746423BB74F323FB740A
:10567000334B188802213A1D3C4B059301230493B8
:105680001023039305230293002301931223009315
:105690000B46022109F041FF0346BB75BB7D002B81
:1056A00006D0BB7D324A022100200FF0E9F906E066
:1056B000234B5B8B2F4A022100200FF0E1F9BC2322
:1056C0003B718A237B71BF23BB714523FB71CA23C6
:1056D0003B7205237B725023BB72BA23FB724023BB
:1056E0003B7342237B73B023BB730023FB730E23F6
:1056F0003B7404237B746423BB74F323FB74104B4F
:10570000188804213A1D1C4B059301230493102390
:10571000039305230293002301931A2300930B465E
:10572000022109F0FAFE0346BB75BB7D002B27D092
:10573000BB7D124A022100200FF0A2F927E000BF32
:10574000F8580020BC2904080C5900200C2A040831
:105750005C2A04080E590020AC2A0408F82A040820
:1057600010590020442B0408942B040812590020DF
:10577000E42B0408302C040814590020782C040869
:10578000B14B9B8BB14A022100200FF079F9BC2369
:105790003B718A237B71BF23BB714523FB71CA23F5
:1057A0003B7205237B725023BB72BA23FB724023EA
:1057B0003B7342237B73B023BB730023FB730F2324
:1057C0003B7404237B746423BB74F323FB749E4BF0
:1057D000188801213A1D9E4B059301230493102341
:1057E000039305230293002301930A2300930B469E
:1057F000022109F092FE0346BB75BB7D002B06D04B
:10580000BB7D944A022100200FF03AF906E08E4B4E
:10581000DB8B914A022100200FF032F9BC233B714F
:105820008A237B71BF23BB714523FB71CA233B7263
:1058300005237B725023BB72BA23FB7240233B7358
:1058400042237B73B023BB730023FB7310233B7491
:1058500004237B746423BB74F323FB747A4B188892
:1058600002213A1D7D4B05930123049310230393DA
:1058700005230293002301931A2300930B46022170
:1058800009F04BFE0346BB75BB7D002B06D0BB7DEC
:10589000734A022100200FF0F3F806E06A4B1B8CDC
:1058A000704A022100200FF0EBF8BC233B718A23E1
:1058B0007B71BF23BB714523FB71CA233B72052358
:1058C0007B725023BB72BA23FB7240233B7342238B
:1058D0007B73B023BB730023FB7311233B7404233E
:1058E0007B746423BB74F323FB74574B1888022129
:1058F0003A1D5D4B05930123049310230393052365
:105900000293002301931A2300930B46022109F00E
:1059100004FE0346BB75BB7D002B06D0BB7D534AFE
:10592000022100200FF0ACF806E0474B5B8C504A98
:10593000022100200FF0A4F8BC233B718A237B7165
:10594000BF23BB714523FB71CA233B7205237B72C6
:105950005023BB72BA23FB7240233B7342237B73F9
:10596000B023BB730023FB7312233B7404237B74AB
:105970006423BB74F323FB74334B188802213A1D54
:105980003C4B0593012304931023039305230293B7
:10599000002301931A2300930B46022109F0BDFD59
:1059A0000346BB75BB7D002B06D0BB7D324A02216E
:1059B00000200FF065F806E0234B9B8C2F4A022154
:1059C00000200FF05DF8BC233B718A237B71BF235D
:1059D000BB714523FB71CA233B7205237B725023A5
:1059E000BB72BA23FB7240233B7342237B73B02309
:1059F000BB730023FB7313233B7404237B74642366
:105A0000BB74F323FB74104B188804213A1D1C4B04
:105A1000059301230493102303930523029300238A
:105A20000193122300930B46022109F076FD0346F1
:105A3000BB75BB7D002B27D0BB7D124A0221002005
:105A40000FF01EF827E000BFF8580020C42C04080F
:105A5000165900200C2D04085C2D0408185900204C
:105A6000A82D0408F82D04081A590020482E04080F
:105A7000982E04081C590020E82E0408382F04082A
:105A80001E590020882F04084C4BDB8C4C4A022105
:105A900000200EF0F5FFBC233B718A237B71BF23EE
:105AA000BB714523FB71CA233B7205237B725023D4
:105AB000BB72BA23FB7240233B7342237B73B02338
:105AC000BB730023FB7314233B7404237B74642394
:105AD000BB74F323FB74394B188801213A1D394BF1
